:10000000DBEF01F0F76A140FF66E000EF72209001D
:10001000F5501200280C01060C204C6569747572AD
:100020006120646F204144300D0A00002044697350
:10003000706C6179206C63643136783200000C207A
:1000400020202056616C6F72204144300D0A000060
:10005000202020202020256C7500EA6A1E0EE96E03
:10006000EF500DE0060E016E006A002EFED7012E45
:10007000FBD77B0E006E002EFED7EF2EF3D71200BB
:1000800025B002D08C9801D08C88959825B202D0EA
:100090008C9A01D08C8A959A25B402D08C9C01D080
:1000A0008C8C959C25B602D08C9E01D08C8E959E12
:1000B000000096928D82020E006E002EFED700D0B8
:1000C000000096928D92120096948D94630E006EAD
:1000D000002EFED700D0225203E096948D8402D0E9
:1000E00096948D94000096928D922338246E0F0E74
:1000F000241624C025F0C4DF23500F0B246E256E78
:10010000BFDF120096948D9496928D920F0E1E6E04
:10011000A4DF116A1150020808E3030E256EB0DF58
:10012000050E1E6E9ADF112AF5D7020E256EA8DF86
:10013000116A1150030811E3036A1150F2CF12F053
:10014000F29E60DF12BEF28E126E226A236EBCDF58
:10015000050E1E6E82DF112AECD7F7EF01F0036A5D
:100160000850040FE96E000E0320EA6EEFCF20F076
:10017000010E1E5C202620508009216E226A236E0B
:10018000A3DF12001D500C0A05E0060A0CE0020A6B
:1001900011E015D0226A010E236E96DF086A020E66
:1001A0001E6E5BDF11D0082A010E1E6E08C01FF004
:1001B000D6DF0AD0226A100E236E86DF05D0010E2C
:1001C000226E1DC023F080DF12000900F5520CE002
:1001D000F6CF11F0F7CF12F0F5CF1DF0D3DF11C03D
:1001E000F6FF12C0F7FFF1D712008E0E006E12C09C
:1001F00001F011C002F0036A015209E102C001F0EE
:10020000026A080E005E015202E1006A08D0D8902E
:1002100001BE04D0023601360006F9D7019E26EF52
:1002200002F01150B608116E036A12C015F0128E5A
:10023000D8901232133214320332023201320032B9
:10024000112EF6D715AE0BD0001E011E021E031E86
:10025000002AD8B4012AD8B4022AD8B4032A3AEF23
:1002600002F00900F6CF12F0F7CF13F0F5CF1DF032
:1002700089DF12C0F6FF13C0F7FF112EF2D752EF3D
:1002800002F0D8B203D0EA6A250EE96E006A016A6C
:10029000026A036A256A266A276A286A245023109C
:1002A000221021102CE0200E296ED8901D361E360B
:1002B0001F36203625362636273628362450285C29
:1002C00008E12350275C05E12250265C02E1215021
:1002D000255C0FE32150255E2250D8A0223C265EEB
:1002E0002350D8A0233C275E2450D8A0243C285E6D
:1002F000D8800036013602360336292ED6D725C0DF
:10030000EFFF26C0ECFF27C0ECFF28C0ECFF120077
:10031000E950156E3B0E1C6E9A0E1B6ECA0E1A6EBD
:10032000196A0A0E176ED882EA6A110EE96E14C0B5
:1003300020F013C01FF012C01EF011C01DF01CC031
:1003400024F01BC023F01AC022F019C021F099DF5D
:10035000015000520FE11750010A0CE015500BE05C
:100360000F0B175C01E00CE215BE0AD015BC03D0E0
:10037000200E02D0156A300E002600C01DF002DFEC
:10038000D8921CC020F01BC01FF01AC01EF019C06C
:100390001DF0246A236A226A0A0E216E72DF03C0EE
:1003A0001CF002C01BF001C01AF000C019F0172E9B
:1003B000BAD75DEF02F0F86AD09EB886080EAF6E2D
:1003C000020EB06EA60EAC6E900EAB6E086AC150F7
:1003D000C00B0F09C16E070EB46E046A400E056EA5
:1003E000100E066E500E076EC00EF2128BD6010E66
:1003F0001E6E1F6EB4DE180EF66E000EF76EE5DE92
:100400002C0EF66E000EF76EE0DE080E116EFA0E80
:100410001E6E23DE112EFBD7C150C00B0C09C16E1E
:10042000C050C00B0709C06EC08EC280000E016EA6
:10043000C250C30B0110C26EC282C2B2FED7C4CF7B
:1004400003F0C3CF11F0C4CF12F0CFD603C00CF02D
:1004500002C00BF001C00AF000C009F00A0E1E6EC7
:10046000FCDD0CC014F00BC013F00AC012F009C080
:1004700011F0D7D603C010F002C00FF001C00EF08B
:1004800000C00DF0010E1E6E1F6E69DE3E0EF66E90
:10049000000EF76E9ADE500EF66E000EF76E060E28
:1004A000116EDFD6410EE96E10C014F00FC013F0CC
:1004B0000EC012F00DC011F02BD7640E1E6ECDDDF4
:0404C000B5D70300A9
:020000040030CA
:0E00000024CC3E1E0087A1000FC00FE00F4071
:00000001FF
;PIC18F4550
;CRC=6936  CREATED="07-abr-21 10:40"
