:04000000ACEF04F06D
:08000800046ED8CF05F0E0CF33
:1000100006F00001E9CF0CF0EACF07F0E1CF08F0DD
:10002000E2CF09F0D9CF0AF0DACF0BF0F3CF12F01C
:10003000F4CF13F0FACF14F000C00EF001C00FF0AF
:1000400002C010F003C011F09DAA2AEF00F09EBA82
:100050000AEF03F00EC000F00FC001F010C002F074
:1000600011C003F00CC0E9FF07C0EAFF078E08C00B
:10007000E1FF09C0E2FF0AC0D9FF0BC0DAFF12C0DE
:10008000F3FF13C0F4FF14C0FAFF045006C0E0FFF2
:1000900005C0D8FF1000556A566A010E576EDA6A1D
:1000A000D96A5A6A4D0E596EEA6A510EE96E5AC003
:1000B000E2FF59C0E1FF57C058F0D890E550EE027A
:1000C000F3505522F4505622582EF7D755C0DEFF74
:1000D00056C055F0566AD8B0562A592AD8B45A2A6A
:1000E000572A57500508E0E11200B60E006E036A69
:1000F000026A016A49504A104B104C1002E1006A32
:100100000DD0D89001BE09D049364A364B364C3610
:10011000033602360136002EF4D7019E8CEF03F031
:100120004950D8B471D0006E4D50D8B46DD000266F
:1001300004E3810E002668E204D07F0E005E64E3D3
:1001400063E04AC051F04E50511A4A8E4E8E4C50C8
:100150005002F4CF53F04B504F02F4CF03F0F3CFE3
:1001600052F05002F3505326F4505222000E032254
:100170004C504F02F3505326F4505222000E026AA4
:10018000032202224A505002F3505226F450032216
:10019000000E02224A504F02F3500326F45002226E
:1001A000000E016A01224C504E02F3505226F450C8
:1001B0000322000E022201224B504E02F35003266E
:1001C000F4500222000E01224A504E02F350022641
:1001D000F4500122002A01BE05D052360336023601
:1001E00001360006000E52AE0AD0032A0222012276
:1001F000015005E1025003E1035001E1002A51BE24
:10020000018E51AE019E04D0006A016A026A036A3F
:100210009DEF03F0800ED8B2521A576A586A4EC04A
:1002200056F05250561A4D50D8B4DCD0556E006E70
:100230005150D8B4E0D0555ED8B481D03DE352C01F
:100240005BF05B8E53C05AF054C059F0586AD89096
:100250005B325A3259325832552EF8D756AE03D047
:100260005780DDD0579055905788EA6A500EE96E56
:10027000E9D0579856BE0AD055A013D05B325A32F7
:1002800059325832002AD8B4C5D00BD05BBE0CD03E
:10029000D890583659365A365B360006D8B4BAD09C
:1002A000F5D7578C6BD0579C4EC056F04EAE02D04F
:1002B0005B8EA9D05B9EA7D051C055F051C000F015
:1002C0004D50555E4EC05BF05B8E4FC05AF050C033
:1002D00059F0586AD8905B325A3259325832552EFA
:1002E000F8D756AE03D057829AD057925590578A76
:1002F000EA6A540EE96EA6D0579A56BE0AD055A0A7
:1003000013D05B325A3259325832002AD8B482D0D4
:100310000BD05BBE0CD0D890583659365A365B3667
:100320000006D8B477D0F5D7578E28D0579E52C044
:1003300056F052AE02D05B8E66D05B9E64D052C047
:100340005BF05B8E53C05AF054C059F056AE04D0E7
:100350005B9E578464D05794586A5590EA6A500E51
:10036000E96E70D056BE1CD04EC056F055A006D0D7
:100370005B325A3259325832002A4CE058AE0BD018
:10038000592A09E15A2A07E15B2A05E15B325A3210
:100390005932002A3FE057BC86D757BEC7D71CD07A
:1003A000800E5B1A5BAE04D03AD052C056F00AD031
:1003B0004EC056F05B5206E15A5204E1595202E136
:1003C000006A21D05BBE08D0D890583659365A36CC
:1003D0005B36002EF7D71ED056AE02D05B8E13D000
:1003E0005B9E11D051C000F052C05BF053C05AF078
:1003F00054C059F008D04DC000F04EC05BF04FC063
:100400005AF050C059F05BC001F05AC002F059C018
:1004100003F034D0006A016A026A036A2FD0586A76
:10042000591E5A1E5B1E581E582A05E1592A03E11F
:100430005A2A01E15B2A57B015D757B256D757B49D
:100440008AD7B3D7EF50592605E35A2A03E15B2A2E
:10045000D8B45580ED52EF505A2603E35B2AD8B446
:100460005580ED52EF50EFBE01D0800A5B26D8B028
:10047000558057B8FED657BA3FD774D7B5EF03F0BB
:100480004950B608496E036A4AC04DF04A8ED8906A
:100490004A324B324C320332023201320032492EA0
:1004A000F6D74DAE0BD0001E011E021E031E002A01
:1004B000D8B4012AD8B4022AD8B4032ABEEF03F074
:1004C0000900F6CF4AF0F7CF4BF0F5509EA8FED7C3
:1004D000AD6E4AC0F6FF4BC0F7FF492EF1D71200B0
:1004E000D8B203D0EA6A5D0EE96E006A016A026A58
:1004F000036A5D6A5E6A5F6A606B5C505B105A10EB
:1005000059102CE0200E616FD8905536563657366C
:1005100058365D365E365F3660375C50605D08E1A8
:100520005B505F5C05E15A505E5C02E159505D5CD6
:100530000FE359505D5E5A50D8A05A3C5E5E5B5046
:10054000D8A05B3C5F5E5C50D8A05C3C605FD8800C
:100550000036013602360336612FD6D75DC0EFFF75
:100560005EC0ECFF5FC0ECFF60C0ECFF1200E95022
:100570004D6E3B0E546E9A0E536ECA0E526E516AF9
:100580000A0E4F6ED882EA6A490EE96E4CC058F0E6
:100590004BC057F04AC056F049C055F054C05CF00B
:1005A00053C05BF052C05AF051C059F099DF01506E
:1005B00000520FE14F50010A0CE04D500BE00F0BC1
:1005C0004F5C01E00DE24DBE0BD04DBC03D0200EC0
:1005D00002D04D6A300E002600509EA8FED7AD6EA8
:1005E000D89254C058F053C057F052C056F051C082
:1005F00055F05C6A5B6A5A6A0A0E596E71DF03C075
:1006000054F002C053F001C052F000C051F04F2E20
:10061000B9D712009EAAFED7AECF16F09EAAFED77B
:10062000AE50D00F336E346A356A366A9EAAFED752
:10063000AE50D00F376E386A396A3A6A9EAAFED732
:10064000AE50D00F3B6E3C6A3D6A3E6A9EAAFED712
:10065000AE50D00F3F6E406A416A426A1650700831
:1006600006E11A6A196A186A010E176E14D01A6A1E
:10067000196A186A176A366A356A346A336A3A6AD6
:10068000396A386A376A3E6A3D6A3C6A3B6A426A3E
:10069000416A406A3F6A506A4F6A4E6A640E4D6E04
:1006A00036C054F035C053F034C052F033C051F06E
:1006B000F2DC03C04CF002C04BF001C04AF000C0B5
:1006C00049F0506A4F6A4E6A0A0E4D6E3AC054F0B5
:1006D00039C053F038C052F037C051F0DCDC005064
:1006E000492601504A2202504B2203504C223B50D3
:1006F00049241F6E3C504A20206E3D504B20216EF5
:100700003E504C20226E22C04CF021C04BF020C045
:100710004AF01FC049F0E9D43D0E4C6E0A0E4B6EF4
:10072000170E4A6E820E496E03C050F002C04FF0A1
:1007300001C04EF000C04DF0F3D403C04CF002C035
:100740004BF001C04AF000C049F0D89203C050F00D
:1007500002C04FF001C04EF000C04DF0546A536A21
:100760002F0E526E880E516E55D503C04CF002C04C
:100770004BF001C04AF000C049F082D603C046F0F9
:1007800002C045F001C044F000C043F046C032F062
:1007900045C031F044C030F043C02FF0580EF66E23
:1007A000080EF76E0A0E496E8BDE410EE96E22C00E
:1007B0004CF021C04BF020C04AF01FC049F0D7DEFA
:1007C000650EF66E080EF76E040E496E79DE410E68
:1007D000E96E36C04CF035C04BF034C04AF033C03F
:1007E00049F0C5DE200E9EA8FED7AD6E410EE96E23
:1007F0003AC04CF039C04BF038C04AF037C049F02D
:10080000B6DE200E9EA8FED7AD6E410EE96E3EC04C
:100810004CF03DC04BF03CC04AF03BC049F0A7DE75
:10082000740EF66E080EF76E1B0E496E49DE410E11
:10083000E96E32C04CF031C04BF030C04AF02FC0EE
:1008400049F095DE920EF66E080EF76E030E496EB5
:1008500037DE9E9A2AEF00F0526563656269646F25
:100860003A20256C75202D3E20256C7520256C7551
:1008700020256C75200D0A416E67756C6F206361D1
:100880006C63756C61646F28656D206D73293A2502
:100890006C75200D0A0074657374652E2E2E7365B9
:1008A0007269616C206F6B21200D0A00456E7669BC
:1008B0006520702B616E67756C6F2E0D0A4578652B
:1008C0006D706C6F3A656E7669616E646F20703022
:1008D00039302C20706F736963696F6E61206F20EF
:1008E000736572766F20656D20393020677261758F
:1008F000730D0A0D0A000900F5520DE0F6CF47F01E
:10090000F7CF48F0F5509EA8FED7AD6E47C0F6FF72
:1009100048C0F7FFF0D71200030E485E09E3EA6A09
:10092000480EE96EEF5004E001D000D0EF2EFDD765
:100930001200EA6A480EE96EEF500DE0060E016EF5
:10094000006A002EFED7012EFBD77B0E006E002E14
:10095000FED7EF2EF3D71200F86AD09E078EB88626
:10096000080EAF6E020EB06EA60EAC6E900EAB6EA1
:10097000C150C00B0F09C16E070EB46ED180C00EFE
:10098000F2129D8A960EF66E080EF76EB4DFAC0E6C
:10099000F66E080EF76EAFDF0400172C36D0185233
:1009A00034E1195232E11A5230E11E6A1D6A1C6AA2
:1009B000140E1B6E95948C8444C047F0472A47065A
:1009C000D8B403D04868A8DFFAD743C048F0A4DF02
:1009D00095948C94140E486EACDFFF0E1B26D8A0A5
:1009E0001C26D8A01D26D8A01E261B52E3E11C52AF
:1009F000E1E11D52DFE11E52DDE1040E476EFA0E09
:0E0A0000486E97DF472EFBD7C8D7C6D7030036
:020000040030CA
:0E00000024CC3E0F0087A1000FC00FE00F4080
:00000001FF
;PIC18F4550
;CRC=FA8D  CREATED="12-jan-20 09:27"
