:1000000008308A00002800000A108A100A118207AE
:10001000443445344D344F344E34533454345234D4
:100020004134433441344F3420344B344934543414
:100030002034443445342034443445345334453436
:100040004E3456344F344C34563449344D344534A0
:100050004E3454344F3420344134433445345034D6
:10006000493443342034503452344F3420345634DD
:1000700032342E3430340A340D3400340A108A10ED
:100080000A1182070A340D344D34693463347234F2
:100090006F3463346F346E34743472346F346C3450
:1000A000613464346F34723420345034493443340E
:1000B00020343134363446343834373437344134EC
:1000C0003B340D340A3400340A108A100A118207B6
:1000D0004234613475346434723461347434653458
:1000E00020343D3420343934363430343034203404
:1000F0004234503453343B340D340A3400340A1043
:100100008A100A11820744346134743461344234F1
:1001100069347434733420343D34203438342E340C
:100120000D340A3400340A108A100A1182070C3484
:10013000203420342034503449344334313436347C
:100140004634383437343734413400340A108A1096
:100150000A1182070A3420342034443445344D34A3
:100160004F344E3453345434523441344334413494
:100170004F3400340A108A100A1182070C344434B8
:1001800069346734693474346534203475346D34BB
:10019000613420347434653463346C346134003435
:1001A0000A108A100A1182074434693467346934AA
:1001B00074346534203475346D34613420347434CF
:1001C000653463346C3461342E340D340A340034B5
:1001D0000A108A100A11820731342D3420344C342D
:1001E0004534443453342E340D340A3400340A1068
:1001F0008A100A11FE3E03188A0A820032342D3416
:10020000203444344934533450344C344134593418
:100210002034443445342034373420345334453486
:1002200047344D3445344E3454344F3453342E34E3
:100230000D340A3400340A148A100A118207333448
:100240002D34203443344F344E34563445345234F4
:1002500053344F345234203441342F3444342E3408
:100260000D340A3400340A148A100A118207343417
:100270002D34203445344534503452344F344D34C9
:100280002034453458345434453452344E34413497
:100290002E340D340A3400340A148A100A118207ED
:1002A00035342D342034523445344C3445342E34D6
:1002B0000D340A3400340A148A100A1182073634C5
:1002C0002D3420344C3445344434203450345734A5
:1002D0004D3432340D340A3400340A148A100A11B1
:1002E00082070C34203420342034203454344534F4
:1002F00043344C3441342034253463342E340034B8
:100300000A148A100A1182075434453443344C3499
:1003100041342034253463342E340D340A3400340F
:100320000A148A100A1182070A3420342034203437
:100330002034203420344C34453444345334003495
:100340000A148A100A1182074C3445344434533459
:100350002E340D340A3400340A148A100A1182072C
:100360000A34203444344934533450344C34413406
:1003700059342034373420345334453447342E3400
:1003800000340A148A100A11820744344934533461
:1003900050344C34413459342034373420345334BD
:1003A000453447342E340D340A3400340A148A108C
:1003B0000A1182070A342034203443344F344E3437
:1003C00056344534523453344F345234203441344B
:1003D000443400340A148A100A11820743344F341B
:1003E0004E3456344534523453344F34523420341E
:1003F000413444342E340D340A3400340A108A1443
:100400000A1182070C344434493447344934543493
:10041000453420343334203450342F342034533492
:1004200041344934523400340A108A140A118207C4
:1004300044344934473449345434453420344E34F8
:100440004F34563441344D3445344E3454344534AD
:1004500020343334203450342F3420345334413456
:10046000493452342E340D340A3400340A108A14BC
:100470000A1182070C344134543455344534203445
:100480004E344F34203450344F34543420344134BB
:1004900044344334313400340A108A140A11820778
:1004A000413454345534453420344E344F342034A0
:1004B00050344F3454342034413444344334313490
:1004C0002E3400340A108A140A1182070A342034A8
:1004D00045344534503452344F344D34203445344F
:1004E00058345434453452344E34413400340A10B4
:1004F0008A140A11820745344534503452344F343B
:100500004D342034453458345434453452344E3408
:1005100041342E340D340A3400340A108A140A117E
:1005200082070C3445347334633472346534763462
:1005300065346E3464346F343A3420343034783473
:100540003434333400340A108A140A1182070A340E
:1005500041346734753461347234643465342E3414
:100560002E342E3400340A108A140A1182070C34F7
:100570004C346534693474347534723461342034E5
:1005800065346D34203430347834313430343A3496
:1005900000340A108A140A1182070A342534783488
:1005A00020342D34203441345334433449344934D5
:1005B0003A3420342534633400340A108A140A1182
:1005C00082070A342034203420342034203420346C
:1005D000523445344C34453400340A108A140A111C
:1005E0008207523445344C3445342E340D340A34A9
:1005F0000034000000000A148A140A11023E031895
:100600008A0A82000A3420342034203420344C34C6
:10061000453444342034503457344D34323400346B
:100620000A148A140A1182074C34453444342034A5
:10063000503457344D3432342E340D340A340034AF
:100640000A148A140A1182070A3420342034203410
:100650002034533445344D34203441344334413410
:100660004F3400340A148A140A1182075334453473
:100670004D3420344134433441344F342E340D341E
:100680000A3400340A148A140A1182070A344C34DA
:1006900045344E3444344F342034413444344334AC
:1006A00031343A3420342534303434346C347534B5
:1006B00000340A148A140A1182074C3445344E342B
:1006C00044344F34203441344434433431343A34A4
:1006D00020342534303434346C3475340D340A34D9
:1006E00000343D308400831300080319842B02304A
:1006F000F800F701F70B7A2BF80B792B9730F700FE
:10070000F70B802B800B772B003483168801831224
:100710004208880083168910831289148316891071
:10072000831289100034831688018312880183168E
:1007300009108312091083168910831289100F3053
:10074000BD0071230130B2003208033C031CB02B02
:100750003030C20085230530BD007123B20AA42BBE
:100760003830C20085230130C20085230130BD002E
:1007700071230C30C20085230630C20085238A1500
:100780000A1255288316091083120910C008031D88
:10079000CB2B0910CC2B0914831609104230F7001B
:1007A000F70BD02B00008910831289104108C2007A
:1007B0008523831609108312091000343C080C3A73
:1007C0000319EC2B063A0319F42B073A0319F42BFF
:1007D000053A0319082C0D2CC0010130C100C223B9
:1007E0000230BD007123132C0130BD000230BE0069
:1007F0003E0BFB2BFE2BC030BF00002C8030BF0017
:1008000001303D02BF07C0013F08C100C223132CC5
:10081000C0011030C100C223132C0130C0003C08BD
:10082000C100C223132C00342030B300831686137A
:1008300083128617831606138312061783168612F1
:100840008312861683160612831206128316061466
:10085000831206182D2C3130B300831686148312B0
:100860008618342C3430B30083160615831206190B
:100870003B2C3730B3008316861583128619422C21
:100880002A30B300831606128312061683168612C8
:10089000831286128316061483120618512C3230E6
:1008A000B3008316861483128618582C3530B30093
:1008B00083160615831206195F2C3830B300831691
:1008C000861583128619662C3030B3008316861283
:1008D00083128616831606138312061383160614D4
:1008E00083120618752C3330B300831686148312D6
:1008F00086187C2C3630B300831606158312061931
:10090000832C3930B30083168615831286198A2CFE
:100910002330B3008316061383120617831686133B
:10092000831286138316061483120618992C4130FD
:10093000B3008316861483128618A02C4230B300AD
:100940008316061583120619A72C4330B3008316AD
:10095000861583128619AE2C4430B3008316861395
:10096000831286173308F800003414247808B20084
:100970003208203C0319CE2C2118CE2C211420083B
:1009800032020319CE2C0A30BD0071231424320820
:100990007802031DCE2C3208F800CF2C21108A15C6
:1009A0000A125429A21522088316870083122216E0
:1009B00022088316870083128A150A12142B083026
:1009C000F80000008711A21122088316870000009A
:1009D0008312B80D0712031CF32C2216220883166B
:1009E0008700F72C8312221222088316870000004A
:1009F0008312A2152208831687008312871DFE2CFE
:100A0000F80BE12C00008711A21122088316870041
:100A100000008312221622088316870000000000BF
:100A20008312A2152208831687008312871D162DB4
:100A3000F8010000071A78148711A2112208831602
:100A4000870083120712221222088316870083125E
:100A50000034221622088316870000008312A21594
:100A60002208831687000000831207122212220830
:100A700083168700000083128711A21122088316B3
:100A80008700A0308312B800DF2478083610781869
:100A90003614221222088316870000008312A21542
:100AA0002208831687008312871D542D0000582DBD
:100AB00000002216220883168700000000308312EF
:100AC000361C0130F80000342925F8080319642D7C
:100AD000221622088316870000008312A21522081E
:100AE0008316870000008312071222122208831641
:100AF0008700000083128711A21122088316870045
:100B00008312330CFA00320CF900FA0CF90CFA0CCF
:100B1000F90CFA0CF90CFA0CF90CFA0CF90CFA0CA9
:100B2000F90C0130FA057908A038FE39B600B80092
:100B3000DF243208B800DF243408B800DF24221292
:100B400022088316870000008312A215220883164C
:100B500087008312871DAA2D0000AE2D00002216EB
:100B6000220883168700000083128A150A123F2B81
:100B70002925F8080319B82D2216220883168700A4
:100B800000008312A215220883168700000083123A
:100B90000712221222088316870000008312871191
:100BA000A2112208831687008312340CFA00330C3A
:100BB000F900FA0CF90CFA0CF90CFA0CF90CFA0C15
:100BC000F90CFA0CF90CFA0CF90C0130FA05790859
:100BD000A038FE39B700B800DF243308B800DF249E
:100BE000221622088316870000008312A21522080D
:100BF0008316870000008312871DFC2D0712221226
:100C0000220883168700000083128711A211220890
:100C1000831687008312340CFA00330CF900FA0CA7
:100C2000F90CFA0CF90CFA0CF90CFA0CF90CFA0C98
:100C3000F90CFA0CF90C0130FA057908A0380138E2
:100C4000B700B800DF24F7010830B7007708B80014
:100C5000221622088316870000008312A21522089C
:100C6000831687008312871D332E071A0314071E6D
:100C70000310F80D0000A2112208831687008312CA
:100C80008711B70B282E2216220883168700000032
:100C90008312071238080319522E221222088316D3
:100CA000870083120000A215220883168700831292
:100CB000871D582E00008711A21122088316870075
:100CC0000000831207122212220883168700780878
:100CD0008312B500221222088316870000008312B7
:100CE000A2152208831687008312871D752E000027
:100CF000792E000022162208831687000000831236
:100D00003508F8000034B51B952E0F30F700340E6F
:100D1000F7050A3077020318902E3030F707922E2D
:100D20003508F7077708BC00DE230F30B4050A301A
:100D3000340203189D2E30309F2EB5133508B407AA
:100D40003408BC00DE238A150A12732BBB01040889
:100D5000BA003B10831B3B14340EF038B600B607C4
:100D6000E23EB700323EB90034080F39B707B70783
:100D7000B907E93EB800B807B807330E0F39B8070E
:100D8000B907B80DB90DB909B90D33080F39B9074D
:100D9000B60D0730B5000A30B907B803031CCC2ED6
:100DA000B807B703031CD02EB707B603031CD42E15
:100DB000B607B503031CD82E3530840083130730E3
:100DC0003A053A1384073930040203193A17000828
:100DD000F700031DF32E3A1BF32E3A1A052FBA190A
:100DE000F32E2030F62EBA153A123030F707B40140
:100DF0000408B3003410831B34147708BC00DE23CE
:100E000033088400831334188317840A3A1FE32EAF
:100E10008A150A12E62DBB010408BA003B10831B99
:100E20003B14340EF038B600B607E23EB700323E4F
:100E3000B90034080F39B707B707B907E93EB8005A
:100E4000B807B807330E0F39B807B907B80DB90D91
:100E5000B909B90D33080F39B907B60D0730B50018
:100E60000A30B907B803031C312FB807B703031CB6
:100E7000352FB707B603031C392FB607B503031C7C
:100E80003D2F35308400831307303A053A13840729
:100E90003930040203193A170008F700031D582FD0
:100EA0003A1B582F3A1A602FBA19582F20305B2F4F
:100EB000BA153A123030F70777080C1E5D2F9900EB
:0C0EC000840A3A1F482F8A150A12FE2DE2
:10100000840183131F3083050C3083169900A230AE
:10101000980090308312980083161F149F141F1598
:101020009F1107309C00FF308312A2003F30A500C3
:101030000630A6005B30A7004F30A8006630A9003C
:101040006D30AA007D30AB000730AC007F30AD00C2
:101050006F30AE00311083168113013085001F10F0
:101060009F141F159F151F1383121F179F17831699
:101070009F1783121F140030F8001F08C739780427
:101080009F000630F700F70B432800008316091075
:10109000831209108316891083128910831609118F
:1010A0008312091185128A11932B8A15B201320815
:1010B0008A1104208A15B20AF70077080C1E5E28F0
:1010C000990035303202031D57283330B2003D30CD
:1010D0000C1E68289900B20B67280A300C1E6E2877
:1010E00099000D300C1E72289900B20132088A1145
:1010F0003E208A15B20AF70077080C1E7D28990059
:1011000021303202031D7628B20132088A11642090
:101110008A15B20AF70077080C1E8C289900163041
:101120003202031D8528B20132088A117F208A15F8
:10113000B20AF70077080C1E9B2899000F30320284
:10114000031D94280D300C1EA32899000A300C1E94
:10115000A7289900B20132088A1193208A15B20A91
:10116000F700BC008A11DE238A150E303202031DFF
:10117000AB28B20132088A11A6208A15B20AF700FC
:10118000BC008A11DE238A150F303202031DBA28F3
:101190000430B200FA30BD008A1171238A15B20BF7
:1011A000CA28B20132088A11BA208A15B20AF70099
:1011B000BC008A11DE238A1511303202031DD228A9
:1011C000B20132088A11D0208A15B20AF7007708D6
:1011D0000C1EE828990013303202031DE128B201E9
:1011E00032088A11E8208A15B20AF70077080C1E27
:1011F000F72899000A303202031DF028B2013208A4
:101200008A11F7208A15B20AF70077080C1E062902
:1012100099001C303202031DFF28B20132088A11E6
:101220001B218A15B20AF70077080C1E15299900B0
:1012300013303202031D0E29B20132088A11332104
:101240008A15B20AF70077080C1E24299900143079
:101250003202031D1D29B20132088A114C218A1560
:10126000B20AF70077080C1E332999000A303202BF
:10127000031D2C29B20132088A115B218A15B20A9A
:10128000F70077080C1E422999000D303202031D29
:101290003B290D300C1E4A2999000A300C1E4E299C
:1012A000990021108A11B52C8A157808A000211CFC
:1012B000C42D2211220883168700831207153230AD
:1012C000BD008A1171238A15221122088316870016
:1012D00083120711B20132088A116D218A15B20AF0
:1012E000F700BC008A11DE238A150B303202031D81
:1012F0006B292008BC008A11DE238A152E30BC0021
:101300008A11DE238A15B20132088A1180218A15DA
:10131000B20AF70077080C1E8B29990006303202BA
:10132000031D842920080C1E932999002E300C1EC1
:10133000972999000D300C1E9B2999000A300C1E2C
:101340009F2999002008313C031DE829B201320889
:101350008A1190218A15B20AF700BC008A11DE2397
:101360008A150B303202031DA729B20132088A11F7
:10137000A0218A15B20AF70077080C1EBD29990032
:1013800007303202031DB629831609108312091093
:10139000831689108312891083160911831209118B
:1013A0008512B001AF012F08073C031CE829831602
:1013B00088018312300888000230B200FA30BD0084
:1013C0008A1171238A15B20BDE29B009AF0AD3291D
:1013D0002008323C031D732AB20132088A11AC2165
:1013E0008A15B20AF700BC008A11DE238A15103074
:1013F0003202031DED29B20132088A11C1218A157A
:10140000B20AF70077080C1E032A99001030320246
:10141000031DFC29AF012F08023C031C662A83161A
:101420008801831226088800850183160910891017
:1014300009110130831289000230B200FA30BD0078
:101440008A1171238A15B20B1E2A83168801831212
:1014500027088800831609108910091102308312A9
:101460008900B200FA30BD008A1171238A15B20BCF
:10147000322A8316880183122808880083160910EF
:10148000891009110430831289000230B200FA3049
:10149000BD008A1171238A15B20B472A8316880171
:1014A00083122908880083160910891009118312F4
:1014B0008901203085000230B200FA30BD008A1167
:1014C00071238A15B20B5D2AAF0A0B2A8316091005
:1014D000831209108316891083128910831609114B
:1014E0008312091185122008333C031DE72AB2013B
:1014F00032088A11D6218A15B20AF700BC008A1177
:10150000DE238A150F303202031D782AB201320819
:101510008A11EA218A15B20AF70077080C1E8E2A72
:1015200099000F303202031D872A0430B200FA30CE
:10153000BD008A1171238A15B20B972A0130B106BA
:10154000311CE72AB20132088A11FE218A15B20A3B
:10155000F700BC008A11DE238A1511303202031D08
:10156000A32AB20132088A1114228A15B20AF7009E
:1015700077080C1EB92A99001D303202031DB22AC9
:101580000830B200FA30BD008A1171238A15B20BFF
:10159000C22AB20132088A1136228A15B20AF7002D
:1015A000BC008A11DE238A1511303202031DCA2ABB
:1015B000B20132088A114C228A15B20AF700770864
:1015C0000C1EE02A990011303202031DD92A20088E
:1015D000343C031D922BB20132088A1162228A1513
:1015E000B20AF700BC008A11DE238A1510303202DD
:1015F000031DEC2AB20132088A1177228A15B20A39
:10160000F70077080C1E022B990011303202031DDF
:10161000FB2A0430B200FA30BD008A1171238A150A
:10162000B20B0B2B8A11D22C8A153230BD008A11D5
:1016300071238A15B20132088A118D228A15B20AE5
:10164000F700BC008A11DE238A1511303202031D17
:101650001B2BB20132088A11A3228A15B20AF700A5
:10166000BC008A11DE238A150B303202031D2A2B9F
:10167000B3011030B2004330B4008A11642D8A15D2
:101680000630B200FA30BD008A1171238A15B20B00
:10169000422BB20132088A11B3228A15B20AF7002E
:1016A000BC008A11DE238A1511303202031D4A2B39
:1016B000B4011030B3008A11B8258A157808B20039
:1016C000B4011030B3008A11B8258A157808B30028
:1016D0000A30BC008A11DE238A153208B400573064
:1016E000B5008A11832E8A150330B40034088A119C
:1016F000C9228A15B40AF700BC008A11DE238A15B4
:101700000D303402031D762B3308BC008A11DE2312
:101710008A150630B200FA30BD008A1171238A158D
:10172000B20B8B2B2008353C031DD92BB20132089C
:101730008A11DD228A15B20AF700BC008A11DE2365
:101740008A150B303202031D972BB20132088A1121
:10175000ED228A15B20AF70077080C1EAD2B99000E
:1017600007303202031DA62BAF012F08023C031CD9
:10177000D92B221022088316870083120714043005
:10178000B200FA30BD008A1171238A15B20BC12B49
:101790002210220883168700831207100430B2003B
:1017A000FA30BD008A1171238A15B20BD02BAF0A13
:1017B000B52B2008363C031D202CB20132088A11BB
:1017C000F9228A15B20AF700BC008A11DE238A15B5
:1017D0000D303202031DDE2BB20132088A111023B4
:1017E0008A15B20AF70077080C1EF42B99000B300B
:1017F0003202031DED2BAF012F08023C031C202CED
:10180000A210220883168700831287140430B200C6
:10181000FA30BD008A1171238A15B20B082CA21070
:10182000220883168700831287100430B200FA3032
:10183000BD008A1171238A15B20B172CAF0AFC2B3D
:101840002008373C031D4B2CB20132088A1120239B
:101850008A15B20AF700BC008A11DE238A150D3002
:101860003202031D252CB20132088A1132238A1557
:10187000B20AF70077080C1E3B2C99000B3032029D
:10188000031D342C0430B200FA30BD008A117123DC
:101890008A15B20B442C2008383C031D762CB2016B
:1018A00032088A1120238A15B20AF700BC008A1177
:1018B000DE238A150D303202031D502CB20132088E
:1018C0008A1132238A15B20AF70077080C1E662C9B
:1018D00099000B303202031D5F2C0430B200FA3045
:1018E000BD008A1171238A15B20B6F2C2008393C78
:1018F000031DA12CB20132088A1120238A15B20AD5
:10190000F700BC008A11DE238A150D303202031D58
:101910007B2CB20132088A1132238A15B20AF700F1
:1019200077080C1E912C99000B303202031D8A2C73
:101930000430B200FA30BD008A1171238A15B20B4F
:101940009A2C2008303C031DCC2CB20132088A119D
:1019500020238A15B20AF700BC008A11DE238A15FB
:101960000D303202031DA62CB20132088A11322337
:101970008A15B20AF70077080C1EBC2C99000B30B0
:101980003202031DB52C0430B200FA30BD008A11BA
:1019900071238A15B20BC52C2008413C031DF72C7E
:1019A000B20132088A1120238A15B20AF700BC005E
:1019B0008A11DE238A150D303202031DD12CB201AB
:1019C00032088A1132238A15B20AF70077080C1EF2
:1019D000E72C99000B303202031DE02C0430B200DA
:1019E000FA30BD008A1171238A15B20BF02C200841
:1019F000423C031D222DB20132088A1120238A1590
:101A0000B20AF700BC008A11DE238A150D303202BB
:101A1000031DFC2CB20132088A1132238A15B20A46
:101A2000F70077080C1E122D99000B303202031DAF
:101A30000B2D0430B200FA30BD008A1171238A15D3
:101A4000B20B1B2D2008433C031D4D2DB201320863
:101A50008A1120238A15B20AF700BC008A11DE23FE
:101A60008A150D303202031D272DB20132088A116A
:101A700032238A15B20AF70077080C1E3D2D990013
:101A80000B303202031D362D0430B200FA30BD0097
:101A90008A1171238A15B20B462D2008443C031D80
:101AA000782DB20132088A1120238A15B20AF70074
:101AB000BC008A11DE238A150D303202031D522D1F
:101AC000B20132088A1132238A15B20AF700770868
:101AD0000C1E682D99000B303202031D612D04305D
:101AE000B200FA30BD008A1171238A15B20B712D34
:101AF0002008453C031DA32DB20132088A11202382
:101B00008A15B20AF700BC008A11DE238A150D304F
:101B10003202031D7D2DB20132088A1132238A154B
:101B2000B20AF70077080C1E932D99000B30320291
:101B3000031D8C2D0430B200FA30BD008A117123D0
:101B40008A15B20B9C2D3118C32DB20132088A11AF
:101B5000D0208A15B20AF70077080C1EAD2D990027
:101B600013303202031DA62DB20132088A11BA20A9
:101B70008A15B20AF700BC008A11DE238A151130DB
:101B80003202031DB52D2110311C102E1F151F19F7
:101B9000C72D83161E088312A3001E08A400B201DD
:101BA00032088A1142238A15B20AF700BC008A1152
:101BB000DE238A150D303202031DD02D093084003A
:101BC0002408B4002308B3008A11A62E8A15B20196
:101BD00032088A1159238A15B20AF70077080C1EB9
:101BE000EF2D99000C303202031DE82D09308400DE
:101BF0002408B4002308B3008A110B2F8A150D3076
:101C00000C1E002E99000A300C1E042E9900023082
:101C1000B200FA30BD008A1171238A15B20B092E69
:041C200052296300E2
:02400E00723FFF
:00000001FF
;PIC16F877A
