:0400000009EF01F013
:08000800046ED8CF05F0E0CF33
:1000100006F00001E9CF0CF0EACF07F0E1CF08F0DD
:10002000E2CF09F0D9CF0AF0DACF0BF0F3CF12F01C
:10003000F4CF13F0FACF14F000C00EF001C00FF0AF
:1000400002C010F003C011F09DA02AEF00F09EB096
:1000500078EF00F00EC000F00FC001F010C002F009
:1000600011C003F00CC0E9FF07C0EAFF078E08C00B
:10007000E1FF09C0E2FF0AC0D9FF0BC0DAFF12C0DE
:10008000F3FF13C0F4FF14C0FAFF045006C0E0FFF2
:1000900005C0D8FF10008E0E006E27C001F026C0EC
:1000A00002F0036A015209E102C001F0026A080E7F
:1000B000005E015202E1006A08D0D89001BE04D06F
:1000C000023601360006F9D7019EB4EF00F0010EAA
:1000D000265E0CE3EA6A260EE96EEF5007E0020E98
:1000E000006E002EFED700D0EF2EF9D7BFEF00F044
:1000F000CE50CFCF03F0DC0F266E0B0ECF20286A38
:10010000D894D8B0282ACF6E26C0CEFF010E17266D
:10011000D8B0182AD8B4192AD8B41A2A1750050802
:1001200011E118520FE119520DE11A520BE11A6A4E
:10013000196A186A176A167016B002D08C9201D02C
:100140008C829592938081B005D0938281B202D047
:1001500095908C80C282C2B2FED7C4CF03F0C3CFC9
:1001600026F0C4CF27F097D703C025F002C024F0B3
:1001700001C023F000C022F0640E266EA8D79E9026
:100180002AEF00F00D0A53656C6563696F6E653A7E
:100190000D0A0000202020203129204C202D206C29
:1001A00069676172206C6564200D0A0020202020A0
:1001B00032292044202D206465736C6967617220A8
:1001C0006C6564200D0A00000900F5520DE0F6CFC1
:1001D00020F0F7CF21F0F5509EA8FED7AD6E20C0DD
:1001E000F6FF21C0F7FFF0D71200EA6A210EE96E90
:1001F000EF500EE00F0E016E006A002EFED7012EAA
:10020000FBD78F0E006E002EFED70000EF2EF2D728
:100210001200F86AD09E078EB886E10EAF6E040E0B
:10022000B06EA60EAC6E900EAB6E1680C150C00BB9
:100230000F09C16E070EB46E176A186A196A1A6A36
:10024000F19EC00EF2129D80B50ECD6E0B0ECF6EDC
:10025000DC0ECE6EC150C00B0E09C16EC050C00B7B
:100260000709C06EC08EC280000E016EC250C30B63
:100270000110C26E8D8496948D949694840EF66EC1
:10028000010EF76EA1DF940EF66E010EF76E9CDF85
:10029000AC0EF66E010EF76E97DF020E206EFA0EB0
:1002A000216EA3DF202EFBD78D8496949EAAFED7C5
:1002B000AECF1FF01F504C0803E01F504408F6E17A
:1002C0001F504C080AE195908C80020E206EFA0EA9
:1002D000216E8BDF202EFBD709D095908C90020EDB
:1002E000206EFA0E216E81DF202EFBD7C5D70300CA
:020000040030CA
:0E00000024CE3E1E0087A1000FC00FE00F406F
:00000001FF
;PIC18F4550
;CRC=1E76  CREATED="30-mai-20 22:23"
