:1000000000308A00272900000A108A100A1182078E
:100010000C34533430343D3425346C34753400346E
:100020000A108A100A1182070A34533431343D34DD
:1000300025346C34753420342D3420345334333427
:100040003D3425346C3475340034333084008313EC
:100050000008031938280230F800F701F70B2E28A2
:10006000F80B2D289730F700F70B3428800B2B283E
:10007000003483168801831238088800831689109B
:100080008312891483168910831289100034831611
:1000900088018312880183160910831209108316C0
:1000A0008910831289100F30B30025200130A7007A
:1000B0002708033C031C64283030B8003920053081
:1000C000B3002520A70A58283830B800392001305D
:1000D000B80039200130B30025200C30B800392099
:1000E0000630B80039208A110A1236298316091001
:1000F00083120910B608031D7F28091080280914EF
:10010000831609104230F700F70B8428000089108D
:10011000831289103708B8003920003432080C3AAD
:1001200003199C28063A0319A428073A0319A4289E
:10013000053A0319B828BD28B6010130B70076206A
:100140000230B3002520C3280130B3000230B400D0
:10015000340BAB28AE28C030B500B0288030B500D5
:1001600001303302B507B6013508B7007620C32841
:10017000B6011030B7007620C3280130B60032082F
:10018000B7007620C3280034B1010408B000311054
:10019000831B31142A0EF038AC00AC07E23EAD00F0
:1001A000323EAF002A080F39AD07AD07AF07E93E71
:1001B000AE00AE07AE07290E0F39AE07AF07AE0D82
:1001C000AF0DAF09AF0D29080F39AF07AC0D0730E0
:1001D000AB000A30AF07AE03031CEA28AE07AD033D
:1001E000031CEE28AD07AC03031CF228AC07AB03DD
:1001F000031CF6282B30840083130730300530139E
:1002000084072F300402031930170008F700031D7C
:100210001129301B1129301A2329B0191129203036
:100220001429B01530123030F707AA010408A900CC
:100230002A10831B2A147708B2008E202908840014
:1002400083132A188317840A301F0129003484017C
:1002500083131F30830583161F149F141F159F11CE
:1002600007309C00FF308312A600472883161F101A
:100270009F101F159F111F1383121F179F1783169F
:100280009F1783121F1426112608831687008312D6
:1002900007150030F8001F08C73978049F00423066
:1002A000F700F70B512900001F151F195529831658
:1002B0001E088312A0001E08A100A7012708042021
:1002C000A70AF700B2008E2004302702031D5E2922
:1002D000103084002108AA002008A900C42008309A
:1002E000F8001F08C73978049F004230F700F70B69
:1002F000772900001F151F197B2983161E088312FA
:10030000A2001E08A3001830F8001F08C73978049F
:100310009F004230F700F70B8B2900001F151F19B3
:100320008F2983161E088312A4001E08A500A701AA
:1003300027081020A70AF700B2008E2004302702F9
:10034000031D9829103084002308AA002208A90060
:10035000C4200730A80028081020A80AF700B2001F
:100360008E200D302802031DAB2910308400250893
:10037000AA002408A900C420A508031DC329240835
:100380004F3C0318CF2926112608831687008312B5
:100390000715A61026088316870083128710A50864
:1003A000031DE2292408373C031CE229A610260875
:1003B0008316870083128714261126088316870068
:1003C000831207110430A700FA30B3002520A70BD1
:0603D000E4294929630045
:02400E00723FFF
:00000001FF
;PIC16F877A
;CRC=7F9C  CREATED="26-dez-09 11:25"
