:10000000D1EF05F0F76A140FF66E000EF722090023
:10001000F5501200280C0106204C65697475726158
:100020002000204C756D696E6F7369646164652092
:1000300000000C202020204C756D696E6F73696480
:100040006164652000002020202020252E316620BC
:100050006C75782000000D0A4C756D696E6F7369C0
:10006000646164653D252E316620200D0A00EA6A30
:100070001A0EE96EEF500DE0060E016E006A002EBA
:10008000FED7012EFBD77B0E006E002EFED7EF2E83
:10009000F3D712002138F00B006E0F0E8A140010F7
:1000A0008A6E00008A80020E006E002EFED700D0FD
:1000B00000008A9012008150006E00380F0B016E14
:1000C00012000F0E9314F009936E8A8400008A8048
:1000D0000000F1DF01C021F08A9000008A8000D08A
:1000E00000D00000E8DF01C020F08A900F0E9314CA
:1000F000936E2138006EF00E001600502010016E35
:1001000087EF00F09390939293948A92DAD701C08C
:1001100020F001BEFBD78A921EB08A8200008A942A
:1001200000008A901F38206E0F0E201620C021F08C
:10013000B1DF1F500F0B206E216EACDF12000F0ECF
:100140009314936E9390939293948A928A948A9044
:100150000F0E1A6E8CDF010E0C6E0C50030808E3B4
:10016000030E216E97DF050E1A6E81DF0C2AF5D77C
:10017000020E216E8FDF050E1A6E79DF0C6A0C50AD
:1001800003080EE3036A0C50F2CF0DF0F29E3ADF43
:100190000DBEF28E0D6E1E6A1F6EB4DF0C2AEFD7F5
:1001A000E4EF05F01B2C01D003D0400E1C6E01D0F3
:1001B0001C6A010E1A5C1C261C5080091D6E1E6AEA
:1001C0001F6EA0DF12001950070A07E00B0A0AE0B1
:1001D000060A10E0020A14E018D0010E1A6E1B6E17
:1001E000E1DF18D01E6A010E1F6E8CDF020E1A6E40
:1001F0003EDF10D0010E1A6E020E1B6ED3DF0AD046
:100200001E6A100E1F6E7EDF05D0010E1E6E19C015
:100210001FF078DF12000900F5520CE0F6CF0CF069
:10022000F7CF0DF0F5CF19F0CEDF0CC0F6FF0DC003
:10023000F7FFF1D712008E0E006E0DC001F00CC05A
:1002400002F0036A015209E102C001F0026A080EDD
:10025000005E015202E1006A08D0D89001BE04D0CD
:10026000023601360006F9D7019E1BEF06F0195041
:10027000D8B471D0006E1D50D8B46DD0002604E300
:10028000810E002668E204D07F0E005E64E363E026
:100290001AC021F01E50211A1A8E1E8E1C502002E8
:1002A000F4CF23F01B501F02F4CF03F0F3CF22F062
:1002B0002002F3502326F4502222000E03221C5069
:1002C0001F02F3502326F4502222000E026A03225A
:1002D00002221A502002F3502226F4500322000E6C
:1002E00002221A501F02F3500326F4500222000E7D
:1002F000016A01221C501E02F3502226F4500322F0
:10030000000E022201221B501E02F3500326F4505D
:100310000222000E01221A501E02F3500226F4504F
:100320000122002A01BE05D02236033602360136EC
:100330000006000E22AE0AD0032A0222012201503A
:1003400005E1025003E1035001E1002A21BE018EC4
:1003500021AE019E04D0006A016A026A036A12009B
:100360000DC014F01150141A14AE05D0D894D890C2
:100370000DBED8802FD00DC014F010C015F00C5059
:10038000155E06E014AE26D0D850010AD86E22D0F1
:1003900011C015F00D50155E06E014AE1BD0D850FC
:1003A000010AD86E17D012C015F00E50155E06E087
:1003B00014AE10D0D850010AD86E0CD013C015F06E
:1003C0000F50155E06E014AE05D0D850010AD86E65
:1003D00001D0D8901200800ED8B2111A166A176A8E
:1003E0000DC015F01150151A0C50D8B4DCD0146E95
:1003F000006E1050D8B4E0D0145ED8B481D03DE384
:1004000011C01AF01A8E12C019F013C018F0176A32
:10041000D8901A32193218321732142EF8D715AE76
:1004200003D01680DDD0169014901688EA6A0F0E5D
:10043000E96EE9D0169815BE0AD014A013D01A326E
:10044000193218321732002AD8B4C5D00BD01ABED0
:100450000CD0D8901736183619361A360006D8B48C
:10046000BAD0F5D7168C6BD0169C0DC015F00DAE1A
:1004700002D01A8EA9D01A9EA7D010C014F010C0B6
:1004800000F00C50145E0DC01AF01A8E0EC019F058
:100490000FC018F0176AD8901A3219321832173272
:1004A000142EF8D715AE03D016829AD01692149057
:1004B000168AEA6A130EE96EA6D0169A15BE0AD0FD
:1004C00014A013D01A32193218321732002AD8B4B5
:1004D00082D00BD01ABE0CD0D890173618361936E9
:1004E0001A360006D8B477D0F5D7168E28D0169EC7
:1004F00011C015F011AE02D01A8E66D01A9E64D0CB
:1005000011C01AF01A8E12C019F013C018F015AEEF
:1005100004D01A9E168464D01694176A1490EA6A5E
:100520000F0EE96E70D015BE1CD00DC015F014A0D2
:1005300006D01A32193218321732002A4CE017AEA0
:100540000BD0182A09E1192A07E11A2A05E11A3203
:1005500019321832002A3FE016BC86D716BEC7D71C
:100560001CD0800E1A1A1AAE04D03AD011C015F061
:100570000AD00DC015F01A5206E1195204E11852C2
:1005800002E1006A21D01ABE08D0D890173618367A
:1005900019361A36002EF7D71ED015AE02D01A8E95
:1005A00013D01A9E11D010C000F011C01AF012C062
:1005B00019F013C018F008D00CC000F00DC01AF0EC
:1005C0000EC019F00FC018F01AC001F019C002F0E7
:1005D00018C003F034D0006A016A026A036A2FD09F
:1005E000176A181E191E1A1E171E172A05E1182A47
:1005F00003E1192A01E11A2A16B015D716B256D707
:1006000016B48AD7B3D7EF50182605E3192A03E1A9
:100610001A2AD8B41480ED52EF50192603E31A2A8F
:10062000D8B41480ED52EF50EFBE01D0800A1A26E4
:10063000D8B0148016B8FED616BA3FD774D71200B9
:100640001050D8B4A5D01C6E1450D8B4A1D01C5EE4
:1006500005E37F0E1C26D8B09BD006D0810E1C5E11
:10066000D8A096D0D8B494D01CC000F0016A026A19
:10067000036A1B6A11C01AF01A8E12C019F013C057
:1006800018F0190E1C6E1750185E0DE2010E195E5F
:100690000AE21A5E08E21B5E06E21B2A1A2A192ADF
:1006A0001750182628D01650195E12E2010E1A5E55
:1006B0000FE21B5E0DE21B2A1A2A1650192617504C
:1006C000182619E3192A17E11A2A15E11B2A13D053
:1006D000155080091A5E0EE2010E1B5E0BE21B2A0A
:1006E000155080091A2616501926E9E31A2AE7E15F
:1006F0001B2AE5D703801C2E01D00BD0D8901836CA
:1007000019361A361B36D8900336023601361D3696
:10071000BAD71DA006D0D8900132023203321D3262
:1007200002D0000635E01DBE1ED0D890183619360E
:100730001A361B361750185E07E2010E195E04E2E6
:100740001A5E02E21B5E1AE31650195E05E2010E04
:100750001A5E02E21B5E12E3155080091A5E03E284
:10076000010E1B5E0BE3032A09E1022A07E1012ABD
:1007700005E1002A0DE001320232033211C01CF003
:1007800015501C1A1CAE02D0018E06D0019E04D05A
:10079000006A016A026A036A12000900F6CF0DF0CE
:1007A000F7CF0EF0F5CF19F00EDD0DC0F6FF0EC03D
:1007B000F7FF0C2EF2D712001950B608196E036A13
:1007C0001AC01DF01A8ED8901A321B321C32033216
:1007D000023201320032192EF6D71DAE0BD0001EA8
:1007E000011E021E031E002AD8B4012AD8B4022A10
:1007F000D8B4032A1200D8B203D0EA6A210EE96EF7
:10080000006A016A026A036A216A226A236A246A08
:1008100020501F101E101D102CE0200E256ED890A9
:1008200019361A361B361C36213622362336243624
:100830002050245C08E11F50235C05E11E50225C1F
:1008400002E11D50215C0FE31D50215E1E50D8A017
:100850001E3C225E1F50D8A01F3C235E2050D8A013
:10086000203C245ED8800036013602360336252E21
:10087000D6D721C0EFFF22C0ECFF23C0ECFF24C07D
:10088000ECFF1200E950116E1050136E19E00FC00A
:100890001CF00EC01BF00DC01AF00CC019F0206A3D
:1008A0001F6A200E1E6E820E1D6EE1DC03C00FF06B
:1008B00002C00EF001C00DF000C00CF0132EE7D7FF
:1008C0000FC01CF00EC01BF00DC01AF00CC019F0C8
:1008D00073DF03C00FF002C00EF001C00DF000C0C6
:1008E0000CF00FAE0DD01106118A0C1E0D1E0E1E3F
:1008F0000F1E0C2AD8B40D2AD8B40E2AD8B40F2A49
:100900003B0E186E9A0E176ECA0E166E156A0A0EF8
:10091000136E1050D8B4112AD882EA6A0C0EE96E10
:100920000FC01CF00EC01BF00DC01AF00CC019F067
:1009300018C020F017C01FF016C01EF015C01DF023
:100940005ADF015000520FE11028135C0CE01150E7
:100950000CE00F0B135C01E038E211BE36D011BC85
:1009600004D0200E2DD0200E111611AA0CD0119AF1
:100970001050D8A411060050116E2D0E196E23DCF4
:100980001150006E116A1050135C0AE10050116E94
:100990002E0E196E18DC1150006E200E1116000E6E
:1009A000300E11AA0DD0119A1050D8A41106005083
:1009B000116E2D0E196E07DC1150006E116A300E8B
:1009C000002600C019F0E3EC00F0D89218C01CF02B
:1009D00017C01BF016C01AF015C019F0206A1F6A64
:1009E0001E6A0A0E1D6E07DF03C018F002C017F062
:1009F00001C016F000C015F0132E8ED770EF07F06F
:100A00000900F6CF0DF0F7CF0EF0F5509EA8FED7F7
:100A1000AD6E0DC0F6FF0EC0F7FF0C2EF1D7120021
:100A2000E950116E1050136E19E00FC01CF00EC08B
:100A30001BF00DC01AF00CC019F0206A1F6A200EBE
:100A40001E6E820E1D6E13DC03C00FF002C00EF08E
:100A500001C00DF000C00CF0132EE7D70FC01CF042
:100A60000EC01BF00DC01AF00CC019F0A5DE03C0BB
:100A70000FF002C00EF001C00DF000C00CF00FAE80
:100A80000DD01106118A0C1E0D1E0E1E0F1E0C2AF3
:100A9000D8B40D2AD8B40E2AD8B40F2A3B0E186E3B
:100AA0009A0E176ECA0E166E156A0A0E136E105045
:100AB000D8B4112AD882EA6A0C0EE96E0FC01CF075
:100AC0000EC01BF00DC01AF00CC019F018C020F0B9
:100AD00017C01FF016C01EF015C01DF08CDE0150AF
:100AE00000520FE11028135C0CE011500CE00F0BCA
:100AF000135C01E03BE211BE39D011BC04D0200EE2
:100B000030D0200E111611AA0DD0119A1050D8A471
:100B100011060050116E2D0E9EA8FED7AD6E11501D
:100B2000006E116A1050135C0BE10050116E2E0E16
:100B30009EA8FED7AD6E1150006E200E1116000E4D
:100B4000300E11AA0ED0119A1050D8A411060050E0
:100B5000116E2D0E9EA8FED7AD6E1150006E116A5B
:100B6000300E002600509EA8FED7AD6ED89218C059
:100B70001CF017C01BF016C01AF015C019F0206A3F
:100B80001F6A1E6A0A0E1D6E36DE03C018F002C010
:100B900017F001C016F000C015F0132E8BD793EF9D
:100BA00007F0F86AD09EB886080EAF6E020EB06EDF
:100BB000A60EAC6E900EAB6EC150C00B0F09C16E8D
:100BC000070EB46E9FEF00F0010E1A6E1B6ED2EC92
:100BD00000F0180EF66E000EF76E0BEC01F0010E31
:100BE0001A6E020E1B6ED2EC00F0220EF66E000E94
:100BF000F76E0BEC01F0040E0C6EFA0E1A6E37EC69
:100C000000F00C2EFAD7C150C00B0E09C16EC050B7
:100C1000C00B0709C06EC09EC280000E016EC2509C
:100C2000C30B0110C26EC282C2B2FED7C4500D6A9D
:100C30000C6E1BEF01F003C007F002C006F001C00C
:100C400005F000C004F007C01CF006C01BF005C092
:100C50001AF004C019F0520E206E270E1F6E200EDF
:100C60001E6E770E1D6E37EC01F003C007F002C058
:100C700006F001C005F000C004F00F6A0E6A0D6AAC
:100C8000800E0C6E07C013F006C012F005C011F004
:100C900004C010F0B0EC01F056E307C00FF006C03E
:100CA0000EF005C00DF004C00CF0330E136E126E82
:100CB000116E800E106EB0EC01F045E31C6A200E40
:100CC0001B6E1C0E1A6E890E196E07C020F006C02E
:100CD0001FF005C01EF004C01DF037EC01F0D882F3
:100CE000660E0F6E060E0E6E760E0D6E8A0E0C6E72
:100CF00003C013F002C012F001C011F000C010F0E8
:100D0000EBEC01F003C00FF002C00EF001C00DF0DB
:100D100000C00CF003C013F002C012F001C011F0CB
:100D200000C010F0CD0E176ECC0E166E4C0E156E68
:100D30007E0E146E85DC03C00BF002C00AF001C009
:100D400009F000C008F0330E0F6E0E6E0D6E800EAF
:100D50000C6E07C013F006C012F005C011F004C0FD
:100D600010F0B0EC01F001E23DE107C00FF006C069
:100D70000EF005C00DF004C00CF0330E136E126EB1
:100D8000730E116E800E106EB0EC01F001E22AE1DC
:100D90001C6A1B6A770E1A6E870E196E07C020F048
:100DA00006C01FF005C01EF004C01DF037EC01F0B6
:100DB000D882330E0F6E930E0E6E0D6A8A0E0C6E75
:100DC00003C013F002C012F001C011F000C010F017
:100DD000EBEC01F003C00BF002C00AF001C009F017
:100DE00000C008F0330E0F6E0E6E730E0D6E800E87
:100DF0000C6E07C013F006C012F005C011F004C05D
:100E000010F0B0EC01F043E31C6A1B6A340E1A6E5A
:100E1000860E196E07C020F006C01FF005C01EF038
:100E200004C01DF037EC01F0D8820F6A0E6A610E23
:100E30000D6E880E0C6E03C013F002C012F001C0DC
:100E400011F000C010F0EBEC01F003C00FF002C095
:100E50000EF001C00DF000C00CF003C013F002C092
:100E600012F001C011F000C010F09A0E176E990E2A
:100E7000166E190E156E7F0E146E20EC03F003C073
:100E80000BF002C00AF001C009F000C008F00A0E21
:100E90001A6E37EC00F0010E1A6E1B6ED2EC00F0E9
:100EA000320EF66E000EF76E0BEC01F0010E1A6EAC
:100EB000020E1B6ED2EC00F0460EF66E000EF76EC0
:100EC000050E0C6E6ADC890EE96E0BC00FF00AC0CD
:100ED0000EF009C00DF008C00CF0010E106ED2D457
:100EE0004F0EF66E000EF76E050E0C6E56DC040EFD
:100EF0000C6EFA0E1A6E37EC00F00C2EFAD7560E66
:100F0000F66E000EF76E0F0E0C6E7ADD890EE96E2E
:100F10000BC00FF00AC00EF009C00DF008C00CF0B5
:100F2000010E106E7DD5690EF66E000EF76E040E82
:080F30000C6E66DD78D60300AB
:020000040030CA
:0E00000024CC3E1E0087A1000FC00FE00F4071
:00000001FF
;PIC18F4550
;CRC=C844  CREATED="22-dez-19 21:48"
