:100000002CEF11F068961200046ED8CF05F0E0CF07
:1000100006F00001E9CF0CF0EACF07F0E1CF08F0DD
:10002000E2CF09F0D9CF0AF0DACF0BF0F3CF12F01C
:10003000F4CF13F0FACF14F000C00EF001C00FF0AF
:1000400002C010F003C011F09DA02AEF00F09EB096
:1000500081EF07F0A0AA30EF00F0A1BA87EF06F019
:100060000EC000F00FC001F010C002F011C003F08C
:100070000CC0E9FF07C0EAFF078E08C0E1FF09C016
:10008000E2FF0AC0D9FF0BC0DAFF12C0F3FF13C0B2
:10009000F4FF14C0FAFF045006C0E0FF05C0D8FF0B
:1000A0001000F76AB20FF66E000EF7220900F55045
:1000B00012000003FFFFFFFFFFFFFFFFFFFFFFFF37
:1000C000FFFFF76AD20FF66E000EF7220900F55017
:1000D000120040000B0000000000000000000000C3
:1000E0000000000000000000000000000000000010
:1000F000000007AE03D0F2CF0DF0F29EF76A140FA6
:10010000F66E010EF7220900F55007AE02D00DBEC3
:10011000F28E120040000800000000000000000005
:1001200000000000000000000000000000000000CF
:1001300000000000F76A440FF66E010EF722090076
:10014000F55012000600FF0901A101190129081547
:1001500080257F7508950B8102190129087508957E
:10016000089102C0F76A740FF66E010EF7220900BB
:10017000F55012000000F76A860FF66E010EF722A6
:100180000900F55012002000F76A980FF66E010E74
:10019000F7220900F550120009022900010100C0F0
:1001A00032090400000203000000092100010001DF
:1001B000222000070581030B000A07050103080040
:1001C0000A00F76AD20FF66E010EF7220900F55009
:1001D00012000100F76AE40FF66E010EF722090023
:1001E000F55012001200F76AF60FF66E010EF722B4
:1001F0000900F550120012011001000000406104D6
:100200002000000101020001F76A180FF66E020ECD
:10021000F7220900F5501200040309040803430003
:1002200043005300200349004600430045002000DE
:10023000500072006F0066002E00460061006200F0
:1002400069006F006D92699468A402D06894FCD72D
:1002500093EF06F0400E0401016F040E036F100EC1
:10026000026F880E006F046B040E076F500E066F4E
:100270000001120070A002D0EDDF7090689A9AEF32
:1002800006F06A6A68929FEF06F0AD91ACBFAD814F
:10029000AC9FAC51100803E2000E016E20D0ADA15E
:1002A00010D0036AAC51F2CFAEF0F29EFADEAEBFD0
:1002B000F28EFF0802E1000E01D0010E016E0FD098
:1002C0000ED0036AAC51F2CFAEF0F29EEADEAEBFC2
:1002D000F28EFF0802E1000E01D0010E016E120045
:1002E000036AAB51700FE96E0F0E0320EA6EEF6ADE
:1002F000ABC0ACF0CADF015218E0AB51080DF350AF
:10030000AD6BE96E040EAD25EA6EEF6AAB51080DD8
:10031000F350AD6BAC6F040EAC27000EAD23ACC038
:10032000E9FF040EAD25EA6EEF6A1200010EAA6F16
:10033000AA510F0805E3AAC0ABF0D2DFAA2BF8D769
:100340001200256A246AA06BA0530AE1036AA05137
:10035000260FE96E000E0320EA6EEF6AA02BF4D799
:10036000186A010E196E176A12006A6A686A9F0E8F
:100370006B6E3D0E696E6E6AD9DFE3DF160E706E2E
:1003800068A602D03FDEFCD76D9864DF030E1F6EB7
:10039000A4EF06F0698468986D82A9EF06F0689C66
:1003A000AEEF06F0A5C020F0120020681200A36B8B
:1003B0002450251046E0A3513F0843E31A50FC0F98
:1003C0002EE2040F2CEF02F023C003F02250F2CFF4
:1003D000A5F0F29ED9DEA5BFF28EA46F20D023C077
:1003E00003F02250F2CFA5F0F29EA4DEA5BFF28E5C
:1003F000A46F15D023C003F02250F2CFA5F0F29ED7
:1004000003DFA5BFF28EA46F0AD023C003F02250F1
:10041000F2CFA5F0F29EE7DEA5BFF28EA46F222AEE
:10042000D8B4232A2450D8B425062406A351A32BDC
:10043000036A500FE96E040E0320EA6EA4C0EFFFBA
:10044000B7D72450251004E1A351400801E0176AF2
:10045000A3C0A5F0A7DF1200E824F76AF736730FF0
:10046000F66E040EF7220A00F550FA6E0800F550F9
:10047000F96EC803DE03F4030A04236A226A1A6AC7
:1004800004011351010A000109E0030A0DE0010A09
:100490000FE0220A29E0030A4DE078D0256A120E07
:1004A000246E030E1A6E74D0256A290E246E70D045
:1004B000020E1A6E036A040112511B0FE96E000E40
:1004C0000320EA6E236AEFCF22F023C003F022500C
:1004D000F2CFA3F0F29E000197DEA3BFF28E036A73
:1004E000246E03C025F054D0D89004011235036A5D
:1004F000F2CFA3F0F29E00016DDE0900F5CF03F00C
:10050000A3BFF28E226E03C023F0223C02D02352FE
:100510000FE023C003F02250F2CFA3F0F29E34DEAE
:10052000A3BFF28E036A246E03C025F031D002D03F
:100530003CDF3DD0D89004011435036AF2CFA3F01C
:10054000F29E00010FDE0900F5CF03F0A3BFF28E8B
:10055000226E03C023F0223C02D0235215E0010E8C
:100560001A6ED89004011435036AF2CFA3F0F29EFC
:10057000000101DE0900F5CF03F0A3BFF28E246E67
:1005800003C025F005D002D010DF11D00EDF0FD050
:100590000401175308E1255203E12450165D03E2DC
:1005A000256A16C424F0010E176E000100DF120048
:1005B000A25304E1040E1F6EB9DED1D0050E1F6EEA
:1005C000040EA56F900EA46F010EA36FA3510F0828
:1005D000D8A0C5D0A3C0ABF083DEA66B036AA3513D
:1005E000F2CFAAF0F29E5DDDAABFF28EFF0859E0BD
:1005F000040EA66FD890A335036AF2CFAAF0F29E3C
:1006000078DD0900F5CF03F0AABFF28EA76F03C013
:10061000A8F0A351080DF350AB6BAA6F010EAA25E9
:10062000016E000EAB21036E01C0E9FF040E03242E
:10063000EA6EA7C0EFFFA351080DF350AB6BAA6F92
:10064000020EAA25016E000EAB21036E01C0E9FF68
:10065000040E0324EA6EA5C0ECFFED52A4C0EFFF28
:10066000D890A335036AF2CFAAF0F29E42DD0900CA
:10067000F5CF03F0AABFF28EA4270350A523880E5E
:10068000A96FA8A101D0A981A8A301D0A983A351D2
:10069000080DF350AB6BE96E040EAB25EA6EA9C0F2
:1006A000EFFF036AA351F2CFAAF0F29EFADCAABFD1
:1006B000F28EFF0839E0A683A351080DF350AB6B0F
:1006C000AA6F040EAA27000EAB23020EAA25016E04
:1006D000000EAB21036E01C0E9FF040E0324EA6E95
:1006E000A5C0ECFFED52A4C0EFFFD890A335036A7C
:1006F000F2CFAAF0F29EE5DC0900F5CF03F0AABF25
:10070000F28EA4270350A523A351080DF350AB6B21
:10071000AA6F040EAA27000EAB23AAC0E9FF040E9D
:10072000AB25EA6E400EEF6EA651060802E10E0EF2
:10073000A66F036AA351F2CFAAF0F29EB2DCAABF61
:10074000F28E010801E0A689036AA351700FE96ED9
:100750000F0E0320EA6EA6C0EFFFA32B37D7FEEFE4
:1007600003F004011151000A00010DE0010A14E038
:10077000020A1FE0060A29E0030A2EE00E0A2EE014
:10078000010A32E040D019C050F40401516B020E4E
:100790000001A56F07DE38D00401122D07D0010E2D
:1007A00019160001A56BFEDD03D004010001FDDD7B
:1007B0002BD00401122D06D019820001A56BF2DDA9
:1007C00003D004010001F1DD1FD0020E176E12C428
:1007D00021F0A56BE7DD18D050DE16D018C050F41C
:1007E000010EA56FDFDD10D004011251010809E3ED
:1007F00012C418F012C4A2F00001DAD6A56BD2DD43
:100800000401000101D0D1DD11EF05F018C0A2F004
:1008100004011151000A000107E00A0A0DE0010A73
:100820002DE00D0A3DE03ED00401506B516B020EED
:100830000001A56FB7DD37D0A2531EE0010EA25D07
:10084000036AF2CFA3F0F29EBCDCA3BFF28E016E6E
:100850000401145DD8A002D000010ED0036A145127
:10086000260FE96E000E0320EA6EEFCF50F4010E62
:100870000001A56F97DD01D098DD15D0A2530EE0E1
:10088000036A04011451260FE96E000E0320EA6E7C
:1008900012C4EFFF0001A56B85DD01D086DD03D01A
:1008A000ECDD01D082DD11EF05F0A391A2BFA381A1
:1008B000A29FA3A111D0A251080DF350A56BA46F64
:1008C000040EA427000EA523A4C0E9FF040EA5254D
:1008D000EA6E880EEF6E09D0A251080DF350A56B99
:1008E000E96E040EA525EA6EEF6AD7EF04F0A39136
:1008F000A2BFA381A29FA3A111D0A251080DF350C2
:10090000A56BA46F040EA427000EA523A4C0E9FFC5
:10091000040EA525EA6E840EEF6E0AD0A251080DD2
:10092000F350A56BE96E040EA525EA6E840EEF6EFA
:10093000DDEF04F0A391A2BFA381A29FA3A111D0D8
:10094000A251080DF350A66BA56F040EA527000E4B
:10095000A623A5C0E9FF040EA625EA6EEFCFA4F0FA
:100960000AD0A251080DF350A66BE96E040EA6251D
:10097000EA6EEFCFA4F0A4AF02D0A4B502D0000E6F
:1009800001D0010E016EE7EF04F014C4ACF07DDC81
:10099000015228E004011151010A000105E0020A98
:1009A00009E0030A0DE01DD014C4A2F07ED7A56BA8
:1009B000F9DC18D014C4A2F09AD7A56BF3DC12D0DE
:1009C0000401506B516B14C4A2F00001B3D7015263
:1009D00004E0010E0401506F0001020EA56FE2DC7D
:1009E00001D0E3DC11EF05F0040111510001DDDC61
:1009F00011EF05F0176A040110517F0B000A000186
:100A000007E0010A07E0030A07E0230A07E008D02D
:100A1000A8D607D0FBD605D0B8D703D0E5D701D0EC
:100A2000C4DC3DEF06F0A251080DF350A86BE96E4F
:100A3000040EA825EA6EEFCFA4F0A351020806E148
:100A4000A4AD02D0A36B02D0010EA36FA351030883
:100A500013E1840EA46FA251080DF350A86BA76F89
:100A6000040EA727000EA823A7C0E9FF040EA8259F
:100A7000EA6E840EEF6E07D0A32D03D0C80EA46FCC
:100A800002D0880EA46FD890A235036AF2CFA7F0E7
:100A9000F29E79EC00F00900F5CF03F0A7BFF28ECB
:100AA000A56F03C0A6F0A251080DF350A86BA76F65
:100AB000010EA725016E000EA821036E01C0E9FFFB
:100AC000040E0324EA6EA5C0EFFFA6A101D0A48105
:100AD000A6A301D0A483A251080DF350A86BE96E20
:100AE000040EA825EA6EA4C0EFFF1200036AA75106
:100AF000700FE96E0F0E0320EA6EEF5212E0A7515D
:100B0000080DF350A96BA86F040EA827000EA923A7
:100B1000A8C0E9FF040EA925EA6EEFCFAAF0AAAF9C
:100B200002D0000E01D0010E016E1200A2C0A7F08B
:100B3000DDDF015263E0A251080DF350A86BA76FEF
:100B4000040EA727000EA823010EA725016E000E94
:100B5000A821036E01C0E9FF040E0324EA6EA3C0BE
:100B6000EFFFA551020817E1A251080DF350A86B41
:100B7000A76F040EA727000EA823A7C0E9FF040E45
:100B8000A825EA6EEFCFA6F0A6AD02D0A56B02D0E5
:100B9000010EA56F13D0A551040810E1A251080D54
:100BA000F350A86BE96E040EA825EA6EEFCFA6F00D
:100BB000A6AD03D0010EA56F01D0A56BA52D03D066
:100BC000C80EA66F02D0880EA66FA4A101D0A68180
:100BD000A4A301D0A683A251080DF350A86BA76F60
:100BE000040EA727000EA823A7C0E9FF040EA8251E
:100BF000EA6EA6C0EFFF010E016E02D0000E016E7C
:100C00001200A25300E11200A3C06EFFA35303E041
:100C1000040E1F6E02D0020E1F6E14EF06F0186A4B
:100C2000176A21C0A3F0F0D721EF06F0A25309E123
:100C3000172C03D0D7EC01F004D017500208D8B419
:100C4000EED712001E30A06FA033A0331F0EA017E6
:100C50001E5241E1040100513C0B0001A16F430E03
:100C6000040100170001A15134081EE104010451E0
:100C7000800B01E0046B0001BDD66D98203C05D0CF
:100C8000A26B030EA36FCFDE0ED0A26B020EA36F7A
:100C9000CADE2050FE0807E0A26BA46B20C0A3F0C0
:100CA000040EA56F43DF16D0A151040813E1A26B17
:100CB000A8DFA26B020EA36FB6DE2050FE080AE08A
:100CC000203C01D007D0A26BA46B20C0A3F0010E82
:100CD000A56F2CDF1AD01E5004080EE12068A26B0D
:100CE000A5DF203C01D007D0A26BA46B20C0A3F0ED
:100CF000020EA56F1BDF09D01EB404D0A0C0A2F065
:100D000080DF03D0A0C0A2F091DFB8EF06F0A19A77
:100D10001F52D8B433D06852D8B430D068A403D0AE
:100D200069B422EF01F06DB229D068AA03D069BA84
:100D30003AEF01F068A203D069B241EF01F068A078
:100D400003D069B0B5EF01F068A803D069B8CAEF65
:100D500001F068AC03D069BCCFEF01F09F6B68A6CF
:100D600008D069A606D06CCF1EF002EC00F06AD75E
:100D700001D004D09F519F2B0308F1E230EF00F027
:100D80000D0A0A55534220636F6E65637461646F88
:100D90002C20616775617264616E646F20656E7589
:100DA0006D65726163616F2E2E2E00000D0A0A556B
:100DB000534220646573636F6E65637461646F2C66
:100DC00020616775617264616E646F20636F6E6528
:100DD00078616F2E2E2E00000D0A0A5553422065B1
:100DE0006E756D657261646F2070656C6F20504325
:100DF0002F484F5354000D0A0A555342206E616F1D
:100E000020656E756D657261646F2070656C6F2012
:100E100050432F484F53542C2061677561726461B1
:100E20006E646F20656E756D65726163616F2E2EE5
:100E30002E000D0A2D2D3E204461646F20726563E3
:100E4000656269646F3A202563202563202563204D
:100E5000256300000D0A2D2D3E204461646F206340
:100E6000616C63756C61646F20736572766F31209D
:100E70003A20256C69000D0A2D2D3E204461646FD7
:100E80002063616C63756C61646F20736572766F4B
:100E900032203A20256C69000D0A2D2D3E20446138
:100EA000646F2063616C63756C61646F207365723D
:100EB000766F33203A20256C69000D0A2D2D3E20D7
:100EC0004461646F2063616C63756C61646F20734F
:100ED0006572766F33203A20256C69000D0A2D2D3E
:100EE0003E204461646F2063616C63756C61646F64
:100EF00020736572766F33203A2025690000B0EFC9
:100F000007F0CE50CFCF03F0A70F9F6FEB0ECF208F
:100F1000A16BD894D8B0A12BCF6E9FC0CEFF010E8D
:100F20008727D8B0882BD8B4892BD8B48A2B872DA3
:100F300016D0885314E1895312E18A5310E18A6B69
:100F4000896B886B876B277427A207D027B402D0E0
:100F5000899A01D0898A929A02D0929A899ACFD797
:100F60009E9030EF00F06D6A696A080E6F6E9450C3
:100F70003009946E1F6A166AF2BE168EF29EA1ECBC
:100F800001F016BEF28EC6EF07F0EDD7EBEF07F0DB
:100F9000166AF2BE168EF29EA1EC01F016BEF28E1B
:100FA0006D6A140E6F6E696A6D86010E1F6EDCEF3E
:100FB00007F06DB601D0ECD71F2C0BD06DBA09D05D
:100FC000686A696AA08AC00EF212110E696E020E7A
:100FD0001F6E1200DAD7EDDF1F500208FCE15EEF52
:100FE00011F0EA6A8C0EE96EEF500DE0060E016E0C
:100FF000006A002EFED7012EFBD77B0E006E002E5E
:10100000FED7EF2EF3D712001850016E1200090020
:10101000F5520DE0F6CF8DF0F7CF8EF0F5509EA88B
:10102000FED7AD6E8DC0F6FF8EC0F7FFF0D7120071
:10103000010E8B6FE9DF01C08CF027A005D08C5327
:1010400003E02790956A8C6A8B5307E0855305E18E
:10105000800EF66E0D0EF76EDADF8B5307E18553C7
:1010600005E0AC0EF66E0D0EF76ED1DF8C5307E087
:10107000865305E1D80EF66E0D0EF76EC8DF8C5361
:1010800007E1865305E0F60EF66E0D0EF76EBFDF34
:101090008BC085F08CC086F08DEF11F0030E8C5F55
:1010A00009E3EA6A8C0EE96EEF5004E001D000D04B
:1010B000EF2EFDD71200166AF2BE168EF29E8BC07E
:1010C000A7F014DD16BEF28E015242E08B51080DDE
:1010D000F350946B936F040E9327000E9423020E2B
:1010E0009325016E000E9421036E01C0E9FF040EEA
:1010F0000324EA6EECCF92F0ED52EFCF91F092C064
:10110000EAFF91C0E9FF8DC0E2FF8CC0E1FF8FC014
:1011100002F08EC001F0015202E0022A02D0025217
:1011200006E0E6CFEEFF012EFCD7022EFAD7166AB4
:10113000F2BE168EF29E8BC0A2F08FC0A4F08EC0BD
:10114000A3F090C0A5F0F2DC16BEF28E015002D0E2
:10115000000E016EB3EF0DF0036A8B51700FE96E54
:101160000F0E0320EA6EEF520DE08B51080DF35085
:101170008D6B8C6FE96E040E8D25EA6EEFCF8EF0CD
:101180008EAF02D0000E01D0010E016EB9EF0DF04E
:101190009051080DF3509B6B9A6F020E9A25016EC9
:1011A000000E9B21036E01C0E9FF040E0324EA6ECA
:1011B000ECCF96F0ED52EFCF95F09051080DF35033
:1011C0009B6B9A6F010E9A25016E000E9B21036E98
:1011D00001C0E9FF040E0324EA6E996BEFCF98F08B
:1011E0009051080DF3509B6BE96E040E9B25EA6E3F
:1011F000EFCF97F097A101D0998197A301D0998360
:101200009951945D08E303E19351985D04E299C01C
:1012100094F098C093F092C0EAFF91C0E9FF96C0A5
:10122000E2FF95C0E1FF94C002F093C001F00152CB
:1012300002E0022A02D0025206E0E6CFEEFF012EC3
:10124000FCD7022EFAD793C001F094C002F034EF1D
:1012500009F08BC090F08DC092F08CC091F08FC0DF
:1012600094F08EC093F094D702C08FF001C08EF03E
:10127000166AF2BE168EF29E8BC0A2F0020EA36F0B
:1012800013EC05F016BEF28E8EC001F08FC002F096
:10129000C6EF0DF00900F6CF8CF0F7CF8DF0F550CA
:1012A0009EA8FED7AD6E8CC0F6FF8DC0F7FF8B2FCA
:1012B000F1D712008D518F03F3CF01F0F4CF00F07E
:1012C0009003F35000268E518F03F3500020026EDE
:1012D0001200800ED8B2941B996B9A6B90C098F054
:1012E0009451981B8F51D8B4DCD0976F006E9351F6
:1012F000D8B4E0D0975FD8B481D03DE394C09DF0DE
:101300009D8F95C09CF096C09BF09A6BD8909D33B2
:101310009C339B339A33972FF8D798AF03D099819A
:10132000DDD0999197919989EA6A920EE96EE9D098
:10133000999998BF0AD097A113D09D339C339B33C2
:101340009A33002AD8B4C5D00BD09DBF0CD0D8900A
:101350009A379B379C379D370006D8B4BAD0F5D75B
:10136000998D6BD0999D90C098F090AF02D09D8FD1
:10137000A9D09D9FA7D093C097F093C000F08F5144
:10138000975F90C09DF09D8F91C09CF092C09BF0A4
:101390009A6BD8909D339C339B339A33972FF8D711
:1013A00098AF03D099839AD099939791998BEA6AD1
:1013B000960EE96EA6D0999B98BF0AD097A113D03C
:1013C0009D339C339B339A33002AD8B482D00BD000
:1013D0009DBF0CD0D8909A379B379C379D3700061D
:1013E000D8B477D0F5D7998F28D0999F94C098F02A
:1013F00094AF02D09D8F66D09D9F64D094C09DF025
:101400009D8F95C09CF096C09BF098AF04D09D9F97
:10141000998564D099959A6B9791EA6A920EE96ED4
:1014200070D098BF1CD090C098F097A106D09D3383
:101430009C339B339A33002A4CE09AAF0BD09B2B02
:1014400009E19C2B07E19D2B05E19D339C339B33E8
:10145000002A3FE099BD86D799BFC7D71CD0800E20
:101460009D1B9DAF04D03AD094C098F00AD090C094
:1014700098F09D5306E19C5304E19B5302E1006AFE
:1014800021D09DBF08D0D8909A379B379C379D3785
:10149000002EF7D71ED098AF02D09D8F13D09D9FFE
:1014A00011D093C000F094C09DF095C09CF096C000
:1014B0009BF008D08FC000F090C09DF091C09CF0D0
:1014C00092C09BF09DC001F09CC002F09BC003F055
:1014D00034D0006A016A026A036A2FD09A6B9B1F9C
:1014E0009C1F9D1F9A1F9A2B05E19B2B03E19C2BB0
:1014F00001E19D2B99B115D799B356D799B58AD7E4
:10150000B3D7EF509B2705E39C2B03E19D2BD8B469
:101510009781ED52EF509C2703E39D2BD8B4978120
:10152000ED52EF50EFBE01D0800A9D27D8B09781D1
:1015300099B9FED699BB3FD774D712008F51D8B452
:10154000A5D09B6F9351D8B4A1D09B5F05E37F0ECC
:101550009B27D8B09BD006D0810E9B5FD8A096D099
:10156000D8B494D09BC000F0016A026A036A9A6BF7
:1015700090C099F0998F91C098F092C097F0190E91
:101580009B6F9651975F0DE2010E985F0AE2995F9B
:1015900008E29A5F06E29A2B992B982B965197278F
:1015A00028D09551985F12E2010E995F0FE29A5F81
:1015B0000DE29A2B992B955198279651972719E36D
:1015C000982B17E1992B15E19A2B13D09451800990
:1015D000995F0EE2010E9A5F0BE29A2B94518009FB
:1015E000992795519827E9E3992BE7E19A2BE5D7BD
:1015F00003809B2F01D00BD0D8909737983799371D
:101600009A37D8900336023601369C37BAD79CA158
:1016100006D0D8900132023203329C3302D0000649
:1016200035E09CBF1ED0D8909737983799379A37B6
:101630009651975F07E2010E985F04E2995F02E21C
:101640009A5F1AE39551985F05E2010E995F02E2F5
:101650009A5F12E394518009995F03E2010E9A5F49
:101660000BE3032A09E1022A07E1012A05E1002A26
:101670000DE001320232033290C09BF094519B1B6B
:101680009BAF02D0018E06D0019E04D0006A016A91
:10169000026A036A12008E0E006E90C001F08FC0C5
:1016A00002F0036A015209E102C001F0026A080E69
:1016B000005E015202E1006A08D0D89001BE04D059
:1016C000023601360006F9D7019E12008F51D8B4B8
:1016D00071D0006E9351D8B46DD0002604E3810E12
:1016E000002668E204D07F0E005E64E363E090C0F1
:1016F00097F09451971B908F948F92519603F4CF4B
:1017000099F091519503F4CF03F0F3CF98F096033D
:10171000F3509927F4509823000E03229251950319
:10172000F3509927F4509823000E026A03220222F4
:1017300090519603F3509827F4500322000E022292
:1017400090519503F3500326F4500222000E016AD3
:10175000012292519403F3509827F4500322000E73
:101760000222012291519403F3500326F4500222E5
:10177000000E012290519403F3500226F4500122EE
:10178000002A01BE05D0983703360236013600061E
:10179000000E98AF0AD0032A02220122015005E16F
:1017A000025003E1035001E1002A97BF018E97AF79
:1017B000019E04D0006A016A026A036A12008E0E5A
:1017C000006E8B51005E8CC002F08DC001F0028E65
:1017D000005209E0D890025202E1015204E00232C4
:1017E0000132002EF7D78CAF05D0011E021E012A50
:1017F000D8B4022A1200EACF93F0E9CF92F08CAF6E
:1018000008D0928F92A9922B8B1F8C1F8B2BD8B450
:101810008C2B8C39F0098E6F8E27E20F8F6F320F71
:10182000916F8C510F0B8F278F279127E90F906FA6
:10183000902790278B390F0B90279127903791375E
:10184000911F91378B510F0B91278E37070E8D6F9C
:101850000A0E90079127FDE38F079027FDE38E077F
:101860008F27FDE38D078E27FDE3EA6A8D0EE96E73
:10187000070E9215929DE906921507E192B9E92AA1
:1018800092B903D0200E006E1CD0E926910EE95CBF
:10189000D8B4928DEF50006E08E192BD06D092B997
:1018A00014D092B702D0200E0BD092AF06D02D0EDE
:1018B000006EED50929D929F04D092879299300EC7
:1018C000002600509EA8FED7AD6EEE5092ADDED73A
:1018D00012009251016A915D03E291C000F00CD0B8
:1018E000006A080E936F913700369251005CD8B0B1
:1018F000006E0136932FF7D71200200E8CA9300E00
:101900008D6F8BC000F08BAF08D0001E002A00C086
:101910008BF02D0E8D6F8C8F8C8101508BC091F0D0
:10192000640E926FD6DF00C08BF0300E01248E6FF4
:101930008BC091F00A0E926FCCDF300E0024906FB6
:10194000300E01248F6F8DC000F0300E8E5D04E0EC
:101950008C838CBF8C8512D08DC08EF0200E8D6F45
:10196000300E8F5D04E08C818CBF8C8307D0D8A4AF
:101970008C8104E18EC08FF0200E8E6F8CB505D067
:101980008CB307D08CB109D00CD08D519EA8FED756
:10199000AD6E8E519EA8FED7AD6E8F519EA8FED71C
:1019A000AD6E90519EA8FED7AD6E0BEF11F0835334
:1019B000D8A4DBD0050E836F842B662B66510308F9
:1019C00001E2666B1C0E6625546E7C0E556ED8B017
:1019D000552A54C000F055C003F07C0E555C03E15D
:1019E0001C0E005C13E07C0E035C03E11D0E005C2A
:1019F00020E07C0E035C03E11E0E005C2DE07C0EFB
:101A0000035C03E11F0E005C3AE04BD08C88959894
:101A100057C08BF08B2B8B07D8B404D08C694EEC5D
:101A200008F0F9D756C08CF04EEC08F08C989598D9
:101A300038D08C8A959A59C08BF08B2B8B07D8B4F1
:101A400004D08C694EEC08F0F9D758C08CF04EECFD
:101A500008F08C9A959A25D08C8C959C5BC08BF065
:101A60008B2B8B07D8B404D08C694EEC08F0F9D7D7
:101A70005AC08CF04EEC08F08C9C959C12D08C8E49
:101A8000959E5DC08BF08B2B8B07D8B404D08C69EE
:101A90004EEC08F0F9D75CC08CF04EEC08F08C9E50
:101AA000959E8451030837E2000E016EC250C30BAD
:101AB0000110C26EA60E006E002EFED70000C2827C
:101AC000C2B2FED7C3CF30F0C4CF31F0040E016EE6
:101AD000C250C30B0110C26EA60E006E002EFED7C0
:101AE0000000C282C2B2FED7C3CF32F0C4CF33F0FF
:101AF000080E016EC250C30B0110C26EA60E006E1E
:101B0000002EFED70000C282C2B2FED7C3CF34F08F
:101B1000C4CF35F0846B31C06FF030C070F033C08B
:101B200071F032C072F035C073F034C074F093803D
:101B3000756B81A0752B9382766B81A2762B938433
:101B4000776B81A4772B9386786B81A6782B010E17
:101B50008B6F8D6B6F0E8C6F8F6B0B0E8E6F020EFB
:101B6000906F5BEF08F0015200E1010E8B6FACEF5C
:101B700008F00152D8B44FD3010E8B6F8D6B280E35
:101B80008C6F8F6B080E8E6F29EF09F0320EF66E98
:101B90000E0EF76E150E8B6F4AEC09F028509EA8BA
:101BA000FED7AD6E200E9EA8FED7AD6E29509EA822
:101BB000FED7AD6E200E9EA8FED7AD6E2A509EA811
:101BC000FED7AD6E200E9EA8FED7AD6E2B509EA800
:101BD000FED7AD6E28504C0823E12950440820E17F
:101BE000310E2A5CF80F1CE2080F12EF11F09590ED
:101BF0008C8016D095908C9013D095928C8210D0BA
:101C000095928C920DD095948C840AD095948C9456
:101C100007D095968C86278203D095968C9627922E
:101C200028505708D8A4A7D0300E295C386E396ADE
:101C3000300E2A5C426E436A300E2B5C4C6E4D6A4D
:101C40008E6B640E8D6F39C090F038C08FF05AECF7
:101C500009F002C08CF001C08BF08E6B0A0E8D6F04
:101C600043C090F042C08FF05AEC09F001508B272E
:101C700002508C234C508B25676FD88265C092F040
:101C800064C091F063C090F062C08FF061C096F0C4
:101C900060C095F05FC094F05EC093F069EC09F00D
:101CA00003C08EF002C08DF001C08CF000C08BF03C
:101CB00003C092F002C091F001C090F000C08FF01C
:101CC000966B956B340E946F860E936F37DC03C062
:101CD0008EF002C08DF001C08CF000C08BF0906BD4
:101CE00067C08FF0D8DC8EC092F08DC091F08CC0B0
:101CF00090F08BC08FF003C096F002C095F001C049
:101D000094F000C093F0E2DC03C08EF002C08DF0CE
:101D100001C08CF000C08BF0D89203C092F002C0DA
:101D200091F001C090F000C08FF061C096F060C0EB
:101D300095F05FC094F05EC093F069EC09F003C0C9
:101D40008EF002C08DF001C08CF000C08BF037DD4A
:101D500002C057F001C056F0540EF66E0E0EF76E2C
:101D60001E0E8B6F4AEC09F0100EE96E57C08CF016
:101D700056C08BF040DD28505808D8A4A8D0300EAB
:101D8000295C3A6E3B6A300E2A5C446E456A300E1E
:101D90002B5C4E6E4F6A8E6B640E8D6F3BC090F065
:101DA0003AC08FF05AEC09F002C08CF001C08BF001
:101DB0008E6B0A0E8D6F45C090F044C08FF05AECC8
:101DC00009F001508B2702508C234E508B25686FF1
:101DD000D88265C092F064C091F063C090F062C098
:101DE0008FF061C096F060C095F05FC094F05EC067
:101DF00093F069EC09F003C08EF002C08DF001C0D1
:101E00008CF000C08BF003C092F002C091F001C0D2
:101E100090F000C08FF0966B956B340E946F860E29
:101E2000936F9EEC0AF003C08EF002C08DF001C0EB
:101E30008CF000C08BF0906B68C08FF02CDC8EC0F3
:101E400092F08DC091F08CC090F08BC08FF003C0E9
:101E500096F002C095F001C094F000C093F036DC1B
:101E600003C08EF002C08DF001C08CF000C08BF07A
:101E7000D89203C092F002C091F001C090F000C06F
:101E80008FF061C096F060C095F05FC094F05EC0C6
:101E900093F069EC09F003C08EF002C08DF001C030
:101EA0008CF000C08BF08BDC02C059F001C058F000
:101EB000760EF66E0E0EF76E1E0E8B6F4AEC09F064
:101EC000100EE96E59C08CF058C08BF094DC28508D
:101ED0005908D8A4ACD0300E295C3C6E3D6A300E57
:101EE0002A5C466E476A300E2B5C506E516A8E6BD0
:101EF000640E8D6F3DC090F03CC08FF05AEC09F03D
:101F000002C08CF001C08BF08E6B0A0E8D6F47C043
:101F100090F046C08FF05AEC09F001508B27025028
:101F20008C2350508B25696FD88265C092F064C0B5
:101F300091F063C090F062C08FF061C096F060C015
:101F400095F05FC094F05EC093F069EC09F003C0B7
:101F50008EF002C08DF001C08CF000C08BF003C089
:101F600092F002C091F001C090F000C08FF0966B2B
:101F7000956B340E946F860E936F9EEC0AF003C03F
:101F80008EF002C08DF001C08CF000C08BF0906B21
:101F900069C08FF04BEC0BF08EC092F08DC091F0C9
:101FA0008CC090F08BC08FF003C096F002C095F00B
:101FB00001C094F000C093F066EC0BF003C08EF00B
:101FC00002C08DF001C08CF000C08BF0D89203C02D
:101FD00092F002C091F001C090F000C08FF061C09B
:101FE00096F060C095F05FC094F05EC093F069EC2D
:101FF00009F003C08EF002C08DF001C08CF000C06B
:102000008BF0DFEC0BF002C05BF001C05AF0980ED1
:10201000F66E0E0EF76E1E0E8B6F4AEC09F0100E68
:10202000E96E5BC08CF05AC08BF0FBEC0BF02850D3
:102030005A08D8A4ACD0300E295C3E6E3F6A300EF0
:102040002A5C486E496A300E2B5C526E536A8E6B66
:10205000640E8D6F3FC090F03EC08FF05AEC09F0D7
:1020600002C08CF001C08BF08E6B0A0E8D6F49C0E0
:1020700090F048C08FF05AEC09F001508B270250C5
:102080008C2352508B256A6FD88265C092F064C051
:1020900091F063C090F062C08FF061C096F060C0B4
:1020A00095F05FC094F05EC093F069EC09F003C056
:1020B0008EF002C08DF001C08CF000C08BF003C028
:1020C00092F002C091F001C090F000C08FF0966BCA
:1020D000956B340E946F860E936F9EEC0AF003C0DE
:1020E0008EF002C08DF001C08CF000C08BF0906BC0
:1020F0006AC08FF04BEC0BF08EC092F08DC091F067
:102100008CC090F08BC08FF003C096F002C095F0A9
:1021100001C094F000C093F066EC0BF003C08EF0A9
:1021200002C08DF001C08CF000C08BF0D89203C0CB
:1021300092F002C091F001C090F000C08FF061C039
:1021400096F060C095F05FC094F05EC093F069ECCB
:1021500009F003C08EF002C08DF001C08CF000C009
:102160008BF0DFEC0BF002C05DF001C05CF0BA0E4A
:10217000F66E0E0EF76E1E0E8B6F4AEC09F0100E07
:10218000E96E5DC08CF05CC08BF0FBEC0BF028506E
:102190005B0841E1300E295C406E416A300E2A5CDA
:1021A0004A6E4B6A300E2B5C546E556A8E6B640E11
:1021B0008D6F41C090F040C08FF05AEC09F002C022
:1021C0008CF001C08BF08E6B0A0E8D6F4BC090F0BF
:1021D0004AC08FF05AEC09F001508B2702508C2333
:1021E00054508B256D6F6DC06EF06EC0BEFF949421
:1021F0008B940C0EBD6EB76AB66ADC0EF66E0E0ED0
:10220000F76E1E0E8B6F4AEC09F06EC08BF0180E45
:102210008C6F7DEF0CF08307010E8C6FF1EC07F0F3
:1022200093EF11F0F2CF0DF0F29EE824F76AF73643
:10223000490FF66E220EF7220A00F550FA6E0800DA
:10224000F5500DBEF28EF96EEE1BF41BFA1B001C4E
:10225000061C0C1C121C1A1CF86AD09E078EB8862D
:10226000080EAF6E020EB06EA60EAC6E900EAB6E88
:102270002780616B606B7A0E5F6E870E5E6E656B9A
:10228000400E646F030E636F8A0E626F836B846B04
:102290002784C150C00B0F09C16E070EB46E1B6AB4
:1022A000040E1C6E0C0E1D6E856B866B876B886B27
:1022B000896B8A6B956A8C6AEAEF07F0C150C00B94
:1022C0000B09C16EC050C00B0709C06EC08EC28022
:1022D000000E016EC250C30B0110C26E640E8C6FF3
:1022E000F1EC07F0F19EC00EF2129D80B50ECD6E9E
:1022F000300E0609CA6EF90ECB6EEB0ECF6EA70E2E
:10230000CE6E080E8B6FFA0E8C6FF1EC07F08B2FF0
:10231000FAD7D9EC07F018EF08F004EC08F00152F6
:0A232000D8A4D7EF0CF0F5D70300A6
:020000040030CA
:0E00000024CC3E1E0087A1000FC00FE00F4071
:00000001FF
;PIC18F4550
;CRC=2761  CREATED="29-set-19 21:59"
