:10000000000003308A00E12B0A108A100A118207CF
:1000100028340C340134063425183232AF1230192A
:10002000E41725183232A029653ABA127300251850
:100030003232AF123019E417251832322010201056
:100040002010201000010830F80000008711A011D6
:1000500020088316870000008312CA0D0712031CB4
:10006000372820162008831687003B288312201289
:1000700020088316870000008312A015200883162D
:1000800087008312871D4228F80B2528000087115E
:10009000A011200883168700000083122016200874
:1000A00083168700000000008312A0152008831625
:1000B00087008312871D5A28F8010000071A781458
:1000C0008711A011200883168700831207122012BF
:1000D000200883168700831208000830C7007708BD
:1000E000C800201620088316870000008312A01580
:1000F0002008831687008312871D7C28071A0314A3
:10010000071E0310F80D0000A011200883168700B9
:1001100083128711C70B71282016200883168700C9
:10012000000083120712480803199B282012200898
:100130008316870083120000A0152008831687000D
:100140008312871DA12800008711A01120088316A3
:1001500087000000831207122012200883168700F0
:10016000831208004708C8000310C80C7830C8057F
:10017000480CF700F70C3F30F70577084807C9002F
:1001800047080F394907F80008004908CA00CB01A1
:100190004A08093C0318D1280A30CA021030CB079C
:1001A000D4284A08CB07D528C8284B08F8000800EF
:1001B000C201201620088316870000008312A015B4
:1001C00020088316870000008312071220122008DF
:1001D00083168700000083128711A0112008831660
:1001E0008700D0308312CA002320CA0123202016A2
:1001F00020088316870000008312A01520088316AC
:10020000870000008312871D03290712201220088F
:1002100083168700000083128711A011200883161F
:100220008700D1308312CA002320F7016D2078089F
:10023000C300C700B2207808C2002012200883162D
:10024000870000008312A015200883168700831200
:10025000871D282900002C2900002016200883165D
:10026000870000008312C21335293629372920164A
:1002700020088316870000008312A015200883162B
:1002800087000000831207122012200883168700BF
:10029000000083128711A011200883168700D03038
:1002A0008312CA002320CA0123204208C900C520A6
:1002B0007808C300CA002320201620088316870070
:1002C00000008312A0152008831687000000831207
:1002D000871D682907122012200883168700000056
:1002E00083128711A011200883168700D030831253
:1002F000CA0023200730CA0023201030CA00232060
:10030000201220088316870000008312A015200801
:10031000831687008312871D8B2900008F29000018
:100320002016200883168700000083128A110A1203
:10033000182CC8133F30C6052016200883168700E6
:1003400000008312A0152008831687000000831286
:1003500007122012200883168700000083128711DD
:10036000A011200883168700D0308312CA002320F2
:10037000B929CA0123204808C900C5207808C90046
:10038000CA0023204708C900C5207808C900CA0050
:1003900023204608C900C5207808C900CA002320C8
:1003A0004508C900C5207808C900CA0023204208B2
:1003B000C900C5207808C900CA0023204308C90025
:1003C000C5207808C900CA0023204408C900C520F8
:1003D0007808C900CA0023201030CA002320201248
:1003E00020088316870000008312A01520088316BA
:1003F00087008312871DFA290000FE2900002016BD
:100400002008831687000000831208004B30840008
:10041000831300080319192A0230F800F701F70BBB
:100420000F2AF80B0E2A9730F700F70B152A800BCE
:100430000C2A080052181E2A06111F2A06158316B8
:1004400006118312D218262A8611272A86158316AA
:100450008611831252192E2A06122F2A0616831687
:1004600006128312D219362A8612372A8616831666
:1004700086128610831286148316861083128610C5
:1004800008008316061083120610CF08031D4A2A9F
:1004900006104B2A0614831606104230F700F70B9D
:1004A0004F2A0000861083128610500ED1000F30A4
:1004B000D1055108D2001A2250080F39D100D200BC
:1004C0001A2208008316061183120611831686115C
:1004D0008312861183160612831206128316861261
:1004E0008312861283160610831206108316861056
:1004F000831286100F30CB0006220130C200420862
:10050000033C031C8B2A0330D2001A220530CB0097
:100510000622C20A7F2A0230D2001A22C2014208F1
:10052000033C031C9C2A42080420C300CF0143085B
:10053000D0004122C20A8F2A8A110A12272C4C0BA2
:10054000A22AA52A4030CD00A62ACD0101304B02B7
:10055000CD074D088038CE00CF014E08D000412293
:1005600008004A080C3A0319BF2A063A0319C72A99
:10057000073A0319C72A053A0319CD2AD22ACF010F
:100580000130D00041220230CB000622D82A0130AF
:10059000CB000230CC009F22D82ACF011030D000EF
:1005A0004122D82A0130CF004A08D0004122D82A5F
:1005B0000800F701F801440803104518F707F70C85
:1005C000F80CC518F707F70CF80C4519F707F70CE6
:1005D000F80CC519F707F70CF80C451AF707F70CD4
:1005E000F80CC51AF707F70CF80C451BF707F70CC2
:1005F000F80CC51BF707F70CF80C8A110A12212D0D
:100600004B08F8014A020318082B4A08F700142B7C
:10061000F7010830CC00CA0DF70D4B08770203181C
:10062000F700F80DCC0B0B2B08002030451E3030A6
:10063000C6004408F700C41F242BF709F70A7708FF
:10064000C4002D30C600C5174408CA006430CB0072
:1006500000237708C40030307807C7004408CA0078
:100660000A30CB00002330307707C90030307807DC
:10067000C8004608F700C51D3F2BC51F4511451A88
:100680004C2BC51F672B4519672B7708C700C5186A
:10069000672B7708C800672B30304702031D672B94
:1006A0007708C7002030C600C51D5A2B4511C51458
:1006B000C51FC51030304802031D672B7708C800DE
:1006C0002030C700C51D5A2BC510C51F4510451D3C
:1006D0006C2B4608CA00B122C51C712B4708CA0002
:1006E000B122451C762B4808CA00B1224908CA002D
:1006F000B1220800831603178C170C1400000000A9
:100700000318A92B83120C087F390313C5000317A4
:100710000D080313C60003170F080313C70045088D
:10072000CA00B122460803178D00031347080317B8
:100730008F0083168C170C14000000008312031323
:10074000C40BA32BA62B83160317A92BC82B831628
:10075000031783120C0D0E0D7F390313C500031709
:100760000D080313C60003170F080313C70045083D
:10077000CA00B122460803178D0003134708031768
:100780008F008D0A03198F0A03100313C40B7A2BF1
:10079000080080080319DE2BC5010408C4004510B9
:1007A000831B45140008CA00B12244088400831347
:1007B00045188317840A0319850AC92B8A110A125E
:1007C000702D840183131F308305FF30A000A10129
:1007D00083161F149F141F159F1107309C0044306F
:1007E0008312A2006930A3006130A400A501A60114
:1007F0004D30A7006530A8007330A900AA01AB01F5
:100800004130AC006E30AD006F30AE00AF01B001D2
:100810004830B1006F30B2007230B300B401B5019E
:100820004D30B6006930B7006E30B800B901D82835
:100830000A30C2000130C3000B30C4000230C500D2
:100840000D30C6000B30C700C8019921622A0C3058
:10085000CA00B122201620088316870000008312E8
:10086000A0152008831687000000831207122012AB
:10087000200883168700000083128711A01120082A
:1008800083168700D0308312CA002320472C033000
:10089000CA00232020162008831687000000831238
:1008A000A01520088316870000008312871D562C90
:1008B0000712201220088316870000008312871178
:1008C000A011200883168700D1308312CA0023208C
:1008D0000130F7006D2078087F39C200C700B220D0
:1008E0007808C1000130F7006D2078083F39C20058
:1008F000C700B2207808BE000130F7006D207808EC
:100900001F39C200C700B2207808BF00F7016D2070
:100910007808C200C700B2207808C0002012200862
:100920008316870000008312A01520088316870015
:100930008312871D992C00009D2C00002016200892
:100940008316870000008312201620088316870074
:1009500000008312A0152008831687000000831270
:1009600007122012200883168700000083128711C7
:10097000A011200883168700D0308312CA002320DC
:10098000CA01232020162008831687000000831246
:10099000A01520088316870000008312871DCE2C27
:1009A0000712201220088316870000008312871187
:1009B000A011200883168700D1308312CA0023209B
:1009C0000130F7006D2078087F39C200C700B220DF
:1009D0007808BB000130F7006D2078087F39C2002D
:1009E000C700B2207808BC00F7016D2078083F39B5
:1009F000C200C700B2207808BD002012200883166C
:100A0000870000008312A015200883168700831238
:100A1000871D082D00000C2D0000201620088316CD
:100A20008700000001308312CB00CC009F22A10878
:100A30000319512D01302102C300C4000530C50047
:100A4000D92A7808223EF800FA010318FA0A780831
:100A5000C2007A08C3003E08C4000130C500152357
:100A60002F30CA00B1223F08C4000130C500152351
:100A70002F30CA00B1224008C4000130C500152340
:100A8000133003178D0000308F000310053003135F
:100A9000C4007A2342088400831343188317C92BA8
:100AA000702D3E08C4000130C50015232F30CA0048
:100AB000B1223F08C4000130C50015232F30CA0001
:100AC000B1224008C4000130C50015231E300317B1
:100AD0008D0000308F00031008300313C4007A2308
:100AE0000130CB000230CC009F223D08C400013011
:100AF000C50015233A30CA00B1223C08C4000130B9
:100B0000C50015233A30CA00B1223B08C4000130A9
:100B1000C500152320152008831687008312071DA2
:100B20009D2DA10A2108053C031CA1010230C20031
:100B30009630CB000622C20B982D83160516831221
:100B4000051EE92D210BAB2DBE0A3E081F3C0318E4
:100B5000AB2D0130BE002108023C031DB62DBF0A9B
:100B60003F080C3C0318B62D0130BF002108033CA0
:100B7000031DC12DC00A4008143C0318C12D0B30C1
:100B8000C0002108043C031DCA2DBD0A3D08173CC6
:100B9000031CBD012108053C031DD32DBC0A3C08E4
:100BA0003B3C031CBC013E08C2003F08C300400898
:100BB000C4004108C5003D08C6003C08C7003B080A
:100BC000C80099210230C2009630CB000622C20B29
:060BD000E42D2A2CEA2DA1
:02400E003A373F
:00000001FF
;PIC16F877A
;CRC=C159  CREATED="10-jan-11 16:32"
