:1000000085EF01F0F76A140FF66E000EF722090073
:10001000F5501200280C01060C2054657374650D10
:100020000A0020446973706C6179206C6364313616
:10003000783200000C2054656D706F72697A6164CB
:100040006F72200D0A00EA6A1A0EE96EEF500DE099
:10005000060E016E006A002EFED7012EFBD77B0E26
:10006000006E002EFED7EF2EF3D7120021B002D083
:100070008C9801D08C88959821B202D08C9A01D0AE
:100080008C8A959A21B402D08C9C01D08C8C959C42
:1000900021B602D08C9E01D08C8E959E0000969247
:1000A0008D82020E006E002EFED700D000009692C8
:1000B0008D92120096948D94630E006E002EFED7E2
:1000C00000D01E5203E096948D8402D096948D94B5
:1000D000000096928D921F38206E0F0E201620C0C1
:1000E00021F0C4DF1F500F0B206E216EBFDF120006
:1000F00096948D9496928D920F0E1A6EA4DF0D6ACF
:100100000D50020808E3030E216EB0DF050E1A6ED3
:100110009ADF0D2AF5D7020E216EA8DF0D6A0D5069
:10012000030811E3036A0D50F2CF0EF0F29E6ADF6E
:100130000EBEF28E0E6E1E6A1F6EBCDF050E1A6EAC
:1001400082DF0D2AECD7A5EF01F0036A0850040FF7
:10015000E96E000E0320EA6EEFCF1CF0010E1A5C70
:100160001C261C5080091D6E1E6A1F6EA3DF120024
:1001700019500C0A05E0060A0CE0020A11E015D03D
:100180001E6A010E1F6E96DF086A020E1A6E5BDF92
:1001900011D0082A010E1A6E08C01BF0D6DF0AD053
:1001A0001E6A100E1F6E86DF05D0010E1E6E19C06E
:1001B0001FF080DF12000900F5520CE0F6CF0DF0C1
:1001C000F7CF0EF0F5CF19F0D3DF0DC0F6FF0EC05C
:1001D000F7FFF1D71200D8B203D0EA6A210EE96E18
:1001E000006A016A026A036A216A226A236A246A2F
:1001F00020501F101E101D102CE0200E256ED890D0
:1002000019361A361B361C3621362236233624364A
:100210002050245C08E11F50235C05E11E50225C45
:1002200002E11D50215C0FE31D50215E1E50D8A03D
:100230001E3C225E1F50D8A01F3C235E2050D8A039
:10024000203C245ED8800036013602360336252E47
:10025000D6D721C0EFFF22C0ECFF23C0ECFF24C0A3
:10026000ECFF1200E950116E3B0E186E9A0E176EDD
:10027000CA0E166E156A0A0E136ED882EA6A0D0E41
:10028000E96E10C01CF00FC01BF00EC01AF00DC0BC
:1002900019F018C020F017C01FF016C01EF015C0CE
:1002A0001DF099DF015000520FE11350010A0CE0DC
:1002B00011500BE00F0B135C01E00CE211BE0AD0F1
:1002C00011BC03D0200E02D0116A300E002600C0EF
:1002D00019F04EDFD89218C01CF017C01BF016C0E2
:1002E0001AF015C019F0206A1F6A1E6A0A0E1D6EE8
:1002F00072DF03C018F002C017F001C016F000C092
:1003000015F0132EBAD7D1EF01F0F86AD09EB88657
:10031000080EAF6E020EB06EA60EAC6E900EAB6EF7
:10032000086A0C6A0B6A0A6A096AC150C00B0F0995
:10033000C16E070EB46E046A400E056E100E066E96
:10034000500E076EC00EF212D3D6010E1A6E1B6E3F
:10035000FCDE180EF66E000EF76E2DDF220EF66E26
:10036000000EF76E28DF080E0D6EFA0E1A6E6BDEA9
:100370000D2EFBD7010E1A6E1B6EE7DE340EF66EE5
:10038000000EF76E18DF200E196EF2DE410EE96ED8
:100390000CC010F00BC00FF00AC00EF009C00DF039
:1003A00061D7200E196EE4DE040E0D6EFA0E1A6E81
:1003B0004ADE0D2EFBD7010E0926000E0A220B2263
:0603C0000C22D8D7030057
:020000040030CA
:0E00000024CC3E1E0087A1000FC00FE00F4071
:00000001FF
;PIC18F4550
;CRC=4352  CREATED="28-abr-21 09:22"
