:10000000A9EF01F0F76A140FF66E000EF72209004F
:10001000F5501200280C01060C2054656D706F72AB
:10002000697A61646F722000202020202020202522
:100030006C752000EA6A150EE96EEF500DE0060EB1
:10004000016E006A002EFED7012EFBD77B0E006EDC
:10005000002EFED7EF2EF3D712001C38F00B006EE7
:100060000F0E8A1400108A6E00008A80020E006E45
:10007000002EFED700D000008A9012008150006E42
:1000800000380F0B016E12000F0E9314F009936EDF
:100090008A8400008A800000F1DF01C01CF08A9091
:1000A00000008A8000D000D00000E8DF01C01BF013
:1000B0008A900F0E9314936E1C38006EF00E00168B
:1000C00000501B10016E6AEF00F09390939293948E
:1000D0008A92DAD701C01BF001BEFBD78A9219B011
:1000E0008A8200008A9400008A901A381B6E0F0ED4
:1000F0001B161BC01CF0B1DF1A500F0B1B6E1C6EC1
:10010000ACDF12000F0E9314936E9390939293941E
:100110008A928A948A900F0E156E8CDF010E086EFB
:100120000850030808E3030E1C6E97DF050E156EDA
:1001300081DF082AF5D7020E1C6E8FDF050E156EC3
:1001400079DF086A085003080EE3036A0850F2CF0B
:1001500009F0F29E57DF09BEF28E096E196A1A6E17
:10016000B4DF082AEFD7B6EF01F0162C01D003D088
:10017000400E176E01D0176A010E155C1726175036
:100180008009186E196A1A6EA0DF12001450070A4F
:1001900007E00B0A0AE0060A10E0020A14E018D091
:1001A000010E156E166EE1DF18D0196A010E1A6E77
:1001B0008CDF020E156E3EDF10D0010E156E020EA2
:1001C000166ED3DF0AD0196A100E1A6E7EDF05D0C4
:1001D000010E196E14C01AF078DF12000900F552F2
:1001E0000CE0F6CF08F0F7CF09F0F5CF14F0CEDF32
:1001F00008C0F6FF09C0F7FFF1D7BFEF01F0090013
:10020000F6CF09F0F7CF0AF0F5CF14F0BFDF09C041
:10021000F6FF0AC0F7FF082EF2D7CBEF01F0D8B2F5
:1002200003D0EA6A1C0EE96E006A016A026A036A78
:100230001C6A1D6A1E6A1F6A1B501A1019101810BA
:100240002CE0200E206ED890143615361636173650
:100250001C361D361E361F361B501F5C08E11A5017
:100260001E5C05E119501D5C02E118501C5C0FE397
:1002700018501C5E1950D8A0193C1D5E1A50D8A009
:100280001A3C1E5E1B50D8A01B3C1F5ED880003657
:10029000013602360336202ED6D71CC0EFFF1DC014
:1002A000ECFF1EC0ECFF1FC0ECFF1200E9500C6E0B
:1002B0003B0E136E9A0E126ECA0E116E106A0A0E63
:1002C0000E6ED882EA6A080EE96E0BC017F00AC0FB
:1002D00016F009C015F008C014F013C01BF012C0CE
:1002E0001AF011C019F010C018F099DF0150005237
:1002F0000FE10E50010A0CE00C500BE00F0B0E5CEE
:1003000001E00CE20CBE0AD00CBC03D0200E02D0DF
:100310000C6A300E002600C014F038DFD89213C0EB
:1003200017F012C016F011C015F010C014F01B6ABF
:100330001A6A196A0A0E186E72DF03C013F002C03F
:1003400012F001C011F000C010F00E2EBAD7D6EF97
:1003500001F0F86AD09E076A066A056A046AC1500D
:10036000C00B0F09C16E070EB46ECCD6010E156E10
:10037000166EFBDE180EF66E000EF76E2FD7010E0E
:10038000156E020E166EF1DE280EF66E000EF76E7A
:10039000070E086E34D7410EE96E07C00BF006C099
:1003A0000AF005C009F004C008F080D7200E146ED2
:1003B000EDDE040E086EFA0E156E3CDE082EFBD73D
:1003C000010E0426000E052206220722CFD70300C5
:020000040030CA
:0E00000024CC3E1E0087A1000FC00FE00F4071
:00000001FF
;PIC18F4550
;CRC=3331  CREATED="12-mai-21 00:18"
