:10000000A4EF02F0F76A140FF66E000EF722090053
:10001000F5501200280C01060C313A415155454368
:1000200045000C323A45534652494120414D422E3B
:1000300000000C333A4553465249412056454E5430
:100040002E000C2053656E736F72200D0A00204C39
:100050004D3335000C20202054656D70657261743D
:10006000757261200D0A0000202020202020256CC0
:10007000752025634300EA6A240EE96EEF500DE017
:10008000060E016E006A002EFED7012EFBD77B0EF6
:10009000006E002EFED7EF2EF3D712002BB002D049
:1000A0008C9801D08C8895982BB202D08C9A01D074
:1000B0008C8A959A2BB402D08C9C01D08C8C959C08
:1000C0002BB602D08C9E01D08C8E959E000096920D
:1000D0008D82020E006E002EFED700D00000969298
:1000E0008D92120096948D94630E006E002EFED7B2
:1000F00000D0285203E096948D8402D096948D947B
:10010000000096928D9229382A6E0F0E2A162AC068
:100110002BF0C4DF29500F0B2A6E2B6EBFDF1200AD
:1001200096948D9496928D920F0E246EA4DF176A8A
:100130001750020808E3030E2B6EB0DF050E246E85
:100140009ADF172AF5D7020E2B6EA8DF176A175011
:10015000030811E3036A1750F2CF18F0F29E52DF42
:1001600018BEF28E186E286A296EBCDF050E246E4A
:1001700082DF172AECD7C1EF02F0036A0850040FA0
:10018000E96E000E0320EA6EEFCF26F0010E245C2C
:10019000262626508009276E286A296EA3DF1200C2
:1001A00023500C0A05E0060A0CE0020A11E015D003
:1001B000286A010E296E96DF086A020E246E5BDF44
:1001C00011D0082A010E246E08C025F0D6DF0AD00F
:1001D000286A100E296E86DF05D0010E286E23C016
:1001E00029F080DF12000900F5520CE0F6CF18F07C
:1001F000F7CF19F0F5CF23F0D3DF18C0F6FF19C001
:10020000F7FFF1D712001750000A05E0010A16E0C7
:10021000030A27E038D08B8A949A8B8294928B942D
:100220009494180EF66E000EF76EDDDF080E186E51
:10023000FA0E246E20DF182EFBD725D08B9A949AC5
:100240008B9294928B949494220EF66E000EF76E1D
:10025000CADF080E186EFA0E246E0DDF182EFBD7BB
:1002600012D08B9A949A8B9294928B849494320E9F
:10027000F66E000EF76EB7DF080E186EFA0E246EDB
:10028000FADE182EFBD712008E0E006E18C001F099
:1002900017C002F0036A015209E102C001F0026ACC
:1002A000080E005E015202E1006A08D0D89001BE3B
:1002B00004D0023601360006F9D7019E09EF03F09B
:1002C0001750D8B471D0006E1B50D8B46DD0002632
:1002D00004E3810E002668E204D07F0E005E64E332
:1002E00063E018C01FF01C501F1A188E1C8E1A5085
:1002F0001E02F4CF21F019501D02F4CF03F0F3CF0A
:1003000020F01E02F3502126F4502022000E03227A
:100310001A501D02F3502126F4502022000E026ACA
:100320000322022218501E02F3502026F45003220A
:10033000000E022218501D02F3500326F450022230
:10034000000E016A01221A501C02F3502026F450BC
:100350000322000E0222012219501C02F350032630
:10036000F4500222000E012218501C02F350022603
:10037000F4500122002A01BE05D020360336023691
:1003800001360006000E20AE0AD0032A0222012206
:10039000015005E1025003E1035001E1002A1FBEB4
:1003A000018E1FAE019E04D0006A016A026A036AD0
:1003B00025EF03F01750B608176E036A18C01BF03C
:1003C000188ED890183219321A32033202320132A2
:1003D0000032172EF6D71BAE0BD0001E011E021ED8
:1003E000031E002AD8B4012AD8B4022AD8B4032A9A
:1003F0002EEF03F00900F6CF18F0F7CF19F0F5CF84
:1004000023F0CEDE18C0F6FF19C0F7FF172EF2D783
:1004100046EF03F0D8B203D0EA6A2B0EE96E006A09
:10042000016A026A036A2B6A2C6A2D6A2E6A2A50B4
:100430002910281027102CE0200E2F6ED89023367C
:100440002436253626362B362C362D362E362A5097
:100450002E5C08E129502D5C05E128502C5C02E15E
:1004600027502B5C0FE327502B5E2850D8A0283C48
:100470002C5E2950D8A0293C2D5E2A50D8A02A3CB9
:100480002E5ED88000360136023603362F2ED6D7A0
:100490002BC0EFFF2CC0ECFF2DC0ECFF2EC0ECFFFB
:1004A0001200E9501B6E3B0E226E9A0E216ECA0E90
:1004B000206E1F6A0A0E1D6ED882EA6A170EE96E58
:1004C0001AC026F019C025F018C024F017C023F078
:1004D00022C02AF021C029F020C028F01FC027F038
:1004E00099DF015000520FE11D50010A0CE01B5032
:1004F0000BE00F0B1D5C01E00CE21BBE0AD01BBC25
:1005000003D0200E02D01B6A300E002600C023F05C
:1005100047DED89222C026F021C025F020C024F06A
:100520001FC023F02A6A296A286A0A0E276E72DF22
:1005300003C022F002C021F001C020F000C01FF073
:100540001D2EBAD751EF03F0F86AD09EB886080E78
:10055000AF6E020EB06EA60EAC6E900EAB6E086A59
:10056000096AC150C00B0F09C16E070EB46E046A50
:10057000400E056E100E066E500E076EC00EF21283
:10058000CFD5010E246E256EF8DD420EF66E000EFC
:10059000F76E29DE4E0EF66E000EF76E24DE080EA4
:1005A000176EFA0E246E67DD172EFBD7C150C00BF5
:1005B0000C09C16EC050C00B0709C06EC08EC2804E
:1005C000938081B009D0095201E0090609C017F0F3
:1005D0001ADE938081A0FDD7938281B20AD00950A0
:1005E000010801E3092A09C017F00DDE938281A2F8
:1005F000FDD7080E016EC250C30B0110C26EC2823D
:10060000C2B2FED7C4CF03F0C3CF17F0C4CF18F0E7
:100610003BD603C012F002C011F001C010F000C0C0
:100620000FF00A0E246E27DD12C01AF011C019F067
:1006300010C018F00FC017F07D0E1E6E3E0E1D6E1E
:100640007A0E1C6E7D0E1B6E3BD603C01AF002C0E4
:1006500019F001C018F000C017F0ACD603C016F0B6
:1006600002C015F001C014F000C013F0010E246E9A
:10067000256E83DD540EF66E000EF76EB4DD680E47
:10068000F66E000EF76E060E176EB4D6410EE96ECA
:1006900016C01AF015C019F014C018F013C017F0E6
:1006A00000D7200E236E7CDDDF0E236E79DD430E36
:1006B000236E76DD020E176EFA0E246EDCDC172E2A
:0606C000FBD77ED703000A
:020000040030CA
:0E00000024CC3E1E0087A1000FC00FE00F4071
:00000001FF
;PIC18F4550
;CRC=66B9  CREATED="12-set-20 22:02"
