:04000000FDEF00F020
:08000800046ED8CF05F0E0CF33
:1000100006F00001E9CF0CF0EACF07F0E1CF08F0DD
:10002000E2CF09F0D9CF0AF0DACF0BF0F3CF12F01C
:10003000F4CF13F0FACF14F000C00EF001C00FF0AF
:1000400002C010F003C011F09DA02AEF00F09EB096
:10005000A3EF00F00EC000F00FC001F010C002F0DE
:1000600011C003F00CC0E9FF07C0EAFF078E08C00B
:10007000E1FF09C0E2FF0AC0D9FF0BC0DAFF12C0DE
:10008000F3FF13C0F4FF14C0FAFF045006C0E0FFF2
:1000900005C0D8FF10008E0E006E25C001F024C0F0
:1000A00002F0036A015209E102C001F0026A080E7F
:1000B000005E015202E1006A08D0D89001BE04D06F
:1000C000023601360006F9D7019EDBEF00F025C0AD
:1000D0002CF029502C1A2CAE05D0D894D89025BEDF
:1000E000D8802FD025C02CF028C02DF024502D5EB4
:1000F00006E02CAE26D0D850010AD86E22D029C0F6
:100100002DF025502D5E06E02CAE1BD0D850010AF4
:10011000D86E17D02AC02DF026502D5E06E02CAEEA
:1001200010D0D850010AD86E0CD02BC02DF027501B
:100130002D5E06E02CAE05D0D850010AD86E01D055
:10014000D890F7EF00F0CE50CFCF03F0DC0F246E45
:100150000B0ECF20CF6E24C0CEFF010E1726D8B0D5
:10016000182AD8B4192AD8B41A2A1750050811E148
:1001700018520FE119520DE11A520BE11A6A196A6D
:10018000186A176A167016B002D08C9201D08C8251
:100190009592938081B005D0938281B202D09590E0
:1001A0008C80C282C2B2FED7C4CF03F0C3CF24F08A
:1001B000C4CF25F070D703C023F002C022F001C0E5
:1001C00021F000C020F0A60E006E002EFED7000029
:1001D00023C027F022C026F021C025F020C024F043
:1001E0002B6A2A6A480E296E860E286E70D702E3A3
:1001F00095908C909E902AEF00F0F86AD09E078E22
:100200001680C150C00B0F09C16E070EB46E176A7D
:10021000186A196A1A6AF19EC00EF2129D80B50E14
:10022000CD6E0B0ECF6EDC0ECE6EC150C00B0E0924
:10023000C16EC050C00B0709C06EC08EC280000ED8
:0E024000016EC250C30B0110C26EFFD7030047
:020000040030CA
:0E00000024CC3E1E0087A1000FC00FE00F4071
:00000001FF
;PIC18F4550
;CRC=7F1A  CREATED="29-dez-19 11:36"
