:04000000BBEF00F062
:08000800046ED8CF05F0E0CF33
:1000100006F00001E9CF0CF0EACF07F0E1CF08F0DD
:10002000E2CF09F0D9CF0AF0DACF0BF0F3CF12F01C
:10003000F4CF13F0FACF14F000C00EF001C00FF0AF
:1000400002C010F003C011F09DA02AEF00F09EB096
:100050005CEF00F00EC000F00FC001F010C002F025
:1000600011C003F00CC0E9FF07C0EAFF078E08C00B
:10007000E1FF09C0E2FF0AC0D9FF0BC0DAFF12C0DE
:10008000F3FF13C0F4FF14C0FAFF045006C0E0FFF2
:1000900005C0D8FF10000900F5520DE0F6CF1BF0A7
:1000A000F7CF1CF0F5509EA8FED7AD6E1BC0F6FF33
:1000B0001CC0F7FFF0D71200CE50CFCF03F0780F5F
:1000C0001B6EEC0ECF201D6AD894D8B01D2ACF6EBF
:1000D0001BC0CEFF010E1726D8B0182AD8B4192A93
:1000E000D8B41A2A1750140828E1185226E11952D8
:1000F00024E11A5222E11A6A196A186A176A93806F
:1001000081B01BD0167216B202D08C9201D08C82B4
:10011000959216B202D08C9401D08C84959416B42A
:1001200005D06E0EF66E010EF76EB5DF16A405D083
:10013000720EF66E010EF76EAEDF938281B201D0C1
:100140001680938281A210D016A00ED0169016743D
:1001500016B402D08C9601D08C86959616B402D037
:100160008C9001D08C8095909E902AEF00F0730DBA
:100170000A00640D0A00F86AD09E078EB886080E41
:10018000AF6E020EB06EA60EAC6E900EAB6E1690F9
:1001900016821684C150C00B0F09C16E070EB46ED3
:1001A000176A186A196A1A6AF19E956A8C6AC00EF3
:1001B000F2129D80950ECD6EEC0ECF6E780ECE6E47
:0401C000FFD7030062
:020000040030CA
:0E00000024CC3E1E0087A1000FC00FE00F4071
:00000001FF
;PIC18F4550
;CRC=A004  CREATED="18-out-20 20:05"
