:10000000EAEF01F0F76A140FF66E000EF72209000E
:10001000F5501200280C01060D0A53656C656369E2
:100020006F6E65206120726F746163616F3A0D0AB3
:1000300000002020202031292030200D0A0020201F
:1000400020203229203230200D0A000020202020DC
:100050003329203530200D0A0000202020203429AB
:10006000203830200D0A00002020202035292031A2
:100070003030200D0A000C204D6F746F7220434306
:1000800020002056656C6F6369646164653D256C72
:1000900075200000EA6A180EE96EEF500DE0060EBA
:1000A000016E006A002EFED7012EFBD77B0E006E7C
:1000B000002EFED7EF2EF3D712001F38F00B006E84
:1000C0000F0E8A1400108A6E00008A80020E006EE5
:1000D000002EFED700D000008A9012008150006EE2
:1000E00000380F0B016E12000F0E9314F009936E7F
:1000F0008A8400008A800000F1DF01C01FF08A902E
:1001000000008A8000D000D00000E8DF01C01EF0AF
:100110008A900F0E9314936E1F38006EF00E001627
:1001200000501E10016E9AEF00F0939093929394FA
:100130008A92DAD701C01EF001BEFBD78A921CB0AA
:100140008A8200008A9400008A901D381E6E0F0E6D
:100150001E161EC01FF0B1DF1D500F0B1E6E1F6E4E
:10016000ACDF12000F0E9314936E939093929394BE
:100170008A928A948A900F0E186E8CDF010E0B6E95
:100180000B50030808E3030E1F6E97DF050E186E71
:1001900081DF0B2AF5D7020E1F6E8FDF050E186E5A
:1001A00079DF0B6A0B5003080EE3036A0B50F2CFA2
:1001B0000CF0F29E27DF0CBEF28E0C6E1C6A1D6ED8
:1001C000B4DF0B2AEFD7FCEF01F00900F5520DE088
:1001D000F6CF0BF0F7CF0CF0F5509EA8FED7AD6E22
:1001E0000BC0F6FF0CC0F7FFF0D71200192C01D09E
:1001F00003D0400E1A6E01D01A6A010E185C1A263E
:100200001A5080091B6E1C6A1D6E8FDF120017507A
:10021000070A07E00B0A0AE0060A10E0020A14E0E7
:1002200018D0010E186E196EE1DF18D01C6A010E8D
:100230001D6E7BDF020E186E2DDF10D0010E186EC2
:10024000020E196ED3DF0AD01C6A100E1D6E6DDF10
:1002500005D0010E1C6E17C01DF067DF12000900EB
:10026000F5520CE0F6CF0BF0F7CF0CF0F5CF17F00E
:10027000CEDF0BC0F6FF0CC0F7FFF1D72AEF02F07C
:100280000900F6CF0CF0F7CF0DF0F5CF17F0BFDF78
:100290000CC0F6FF0DC0F7FF0B2EF2D736EF02F0C1
:1002A000D8B203D0EA6A1F0EE96E006A016A026AD8
:1002B000036A1F6A206A216A226A1E501D101C10E0
:1002C0001B102CE0200E236ED890173618361936E6
:1002D0001A361F362036213622361E50225C08E19F
:1002E0001D50215C05E11C50205C02E11B501F5C8D
:1002F0000FE31B501F5E1C50D8A01C3C205E1D50FD
:10030000D8A01D3C215E1E50D8A01E3C225ED88085
:100310000036013602360336232ED6D71FC0EFFF34
:1003200020C0ECFF21C0ECFF22C0ECFF1200E9501E
:100330000F6E3B0E166E9A0E156ECA0E146E136A71
:100340000A0E116ED882EA6A0B0EE96E0EC01AF020
:100350000DC019F00CC018F00BC017F016C01EF03D
:1003600015C01DF014C01CF013C01BF099DF015024
:1003700000520FE11150010A0CE00F500BE00F0B7F
:10038000115C01E00CE20FBE0AD00FBC03D0200EBE
:1003900002D00F6A300E002600C017F038DFD89266
:1003A00016C01AF015C019F014C018F013C017F0D9
:1003B0001E6A1D6A1C6A0A0E1B6E72DF03C016F0ED
:1003C00002C015F001C014F000C013F0112EBAD70E
:1003D00041EF02F0F86AD09EB886080EAF6E020EAA
:1003E000B06EA60EAC6E900EAB6EC150C00B0F0976
:1003F000C16E070EB46EB6D6180EF66E000EF76E0E
:10040000E4DE320EF66E000EF76EDFDE3E0EF66EA6
:10041000000EF76EDADE4C0EF66E000EF76ED5DECD
:100420005A0EF66E000EF76ED0DE680EF66E000EF7
:10043000F76ECBDE000E0509CA6EF90ECB6E06C054
:10044000BEFF010E186E196ED1DE760EF66E000E2E
:10045000F76E05D7010E186E020E196EC7DE820EFA
:10046000F66E000EF76E0C0E0B6E0AD7410EE96E9B
:100470000AC00EF009C00DF008C00CF007C00BF068
:1004800056D7200E176EC3DE9EAAFED7AECF05F05C
:1004900005503008F9E205503608F6E394948B9441
:1004A0000C0EBD6EB76AB66A310E055CFB0F28E212
:1004B000050F82EF02F0066A0A6A096A086A076A8B
:1004C0001FD0320E066E0A6A096A086A140E076E99
:1004D00017D07D0E066E0A6A096A086A320E076E28
:1004E0000FD0C80E066E0A6A096A086A500E076EB7
:1004F00007D0FA0E066E0A6A096A086A640E076E69
:100500007BD70300E824F76AF7361F0FF66E050E57
:10051000F7220A00F550FA6E0800F550F96EB6049D
:08052000C204D204E204F2045B
:020000040030CA
:0E00000024CC3E1E0087A1000FC00FE00F4071
:00000001FF
;PIC18F4550
;CRC=F8DC  CREATED="30-jun-20 05:06"
