:04000000A5EF06F072
:08000800046ED8CF05F0E0CF33
:1000100006F00001E9CF0CF0EACF07F0E1CF08F0DD
:10002000E2CF09F0D9CF0AF0DACF0BF0F3CF12F01C
:10003000F4CF13F0FACF14F000C00EF001C00FF0AF
:1000400002C010F003C011F0F2AA2AEF00F0F2B4DF
:100050007AEF06F00EC000F00FC001F010C002F001
:1000600011C003F00CC0E9FF07C0EAFF078E08C00B
:10007000E1FF09C0E2FF0AC0D9FF0BC0DAFF12C0DE
:10008000F3FF13C0F4FF14C0FAFF045006C0E0FFF2
:1000900005C0D8FF10008E0E006E30C001F02FC0DA
:1000A00002F0036A015209E102C001F0026A080E7F
:1000B000005E015202E1006A08D0D89001BE04D06F
:1000C000023601360006F9D7019EEEEF03F0EA6A28
:1000D0002F0EE96EEF500DE0060E016E006A002E45
:1000E000FED7012EFBD77B0E006E002EFED7EF2E23
:1000F000F3D712002F50D8B471D0006E3350D8B45B
:100100006DD0002604E3810E002668E204D07F0E45
:10011000005E64E363E030C037F03450371A308E4D
:10012000348E32503602F4CF39F031503502F4CFEC
:1001300003F0F3CF38F03602F3503926F45038226A
:10014000000E032232503502F3503926F450382283
:10015000000E026A0322022230503602F350382683
:10016000F4500322000E022230503502F3500326D1
:10017000F4500222000E016A012232503402F35080
:100180003826F4500322000E02220122315034029C
:10019000F3500326F4500222000E012230503402A4
:1001A000F3500226F4500122002A01BE05D0383651
:1001B0000336023601360006000E38AE0AD0032A96
:1001C00002220122015005E1025003E1035001E146
:1001D000002A37BE018E37AE019E04D0006A016A44
:1001E000026A036A120030C037F03450371A37AE53
:1001F00005D0D894D89030BED8802FD030C037F0FA
:1002000033C038F02F50385E06E037AE26D0D850D5
:10021000010AD86E22D034C038F03050385E06E083
:1002200037AE1BD0D850010AD86E17D035C038F081
:100230003150385E06E037AE10D0D850010AD86E83
:100240000CD036C038F03250385E06E037AE05D0FC
:10025000D850010AD86E01D0D8901200800ED8B2C2
:10026000341A396A3A6A30C038F03450381A2F508C
:10027000D8B4DCD0376E006E3350D8B4E0D0375EDF
:10028000D8B481D03DE334C03DF03D8E35C03CF064
:1002900036C03BF03A6AD8903D323C323B323A327B
:1002A000372EF8D738AE03D03980DDD0399037906B
:1002B0003988EA6A320EE96EE9D0399838BE0AD038
:1002C00037A013D03D323C323B323A32002AD8B408
:1002D000C5D00BD03DBE0CD0D8903A363B363C361C
:1002E0003D360006D8B4BAD0F5D7398C6BD0399CDE
:1002F00030C038F030AE02D03D8EA9D03D9EA7D0A0
:1003000033C037F033C000F02F50375E30C03DF0BF
:100310003D8E31C03CF032C03BF03A6AD8903D325D
:100320003C323B323A32372EF8D738AE03D03982DE
:100330009AD039923790398AEA6A360EE96EA6D099
:10034000399A38BE0AD037A013D03D323C323B3206
:100350003A32002AD8B482D00BD03DBE0CD0D8900F
:100360003A363B363C363D360006D8B477D0F5D722
:10037000398E28D0399E34C038F034AE02D03D8E4C
:1003800066D03D9E64D034C03DF03D8E35C03CF01B
:1003900036C03BF038AE04D03D9E398464D03994E9
:1003A0003A6A3790EA6A320EE96E70D038BE1CD0D5
:1003B00030C038F037A006D03D323C323B323A32C2
:1003C000002A4CE03AAE0BD03B2A09E13C2A07E177
:1003D0003D2A05E13D323C323B32002A3FE039BC48
:1003E00086D739BEC7D71CD0800E3D1A3DAE04D08B
:1003F0003AD034C038F00AD030C038F03D5206E16F
:100400003C5204E13B5202E1006A21D03DBE08D0DB
:10041000D8903A363B363C363D36002EF7D71ED0C4
:1004200038AE02D03D8E13D03D9E11D033C000F0C7
:1004300034C03DF035C03CF036C03BF008D02FC092
:1004400000F030C03DF031C03CF032C03BF03DC068
:1004500001F03CC002F03BC003F034D0006A016AF6
:10046000026A036A2FD03A6A3B1E3C1E3D1E3A1EAA
:100470003A2A05E13B2A03E13C2A01E13D2A39B051
:1004800015D739B256D739B48AD7B3D7EF503B26F0
:1004900005E33C2A03E13D2AD8B43780ED52EF5002
:1004A0003C2603E33D2AD8B43780ED52EF50EFBE2F
:1004B00001D0800A3D26D8B0378039B8FED639BA87
:1004C0003FD774D712003350D8B4A5D03F6E375001
:1004D000D8B4A1D03F5E05E37F0E3F26D8B09BD0B5
:1004E00006D0810E3F5ED8A096D0D8B494D03FC03D
:1004F00000F0016A026A036A3E6A34C03DF03D8E34
:1005000035C03CF036C03BF0190E3F6E3A503B5EB2
:100510000DE2010E3C5E0AE23D5E08E23E5E06E24E
:100520003E2A3D2A3C2A3A503B2628D039503C5E90
:1005300012E2010E3D5E0FE23E5E0DE23E2A3D2AD2
:1005400039503C263A503B2619E33C2A17E13D2A14
:1005500015E13E2A13D0385080093D5E0EE2010EAF
:100560003E5E0BE23E2A385080093D2639503C263B
:10057000E9E33D2AE7E13E2AE5D703803F2E01D09B
:100580000BD0D8903B363C363D363E36D8900336BD
:10059000023601364036BAD740A006D0D890013294
:1005A00002320332403202D0000635E040BE1ED097
:1005B000D8903B363C363D363E363A503B5E07E2FD
:1005C000010E3C5E04E23D5E02E23E5E1AE33950FB
:1005D0003C5E05E2010E3D5E02E23E5E12E33850F3
:1005E00080093D5E03E2010E3E5E0BE3032A09E152
:1005F000022A07E1012A05E1002A0DE00132023258
:10060000033234C03FF038503F1A3FAE02D0018E63
:1006100006D0019E04D0006A016A026A036A1200D1
:100620002F50B6082F6E036A30C033F0308ED8904A
:1006300030323132323203320232013200322F2E66
:10064000F6D733AE0BD0001E011E021E031E002A79
:10065000D8B4012AD8B4022AD8B4032A1FEF05F06F
:10066000D8B203D0EA6A4B0EE96E006A016A026AE8
:10067000036A4B6A4C6A4D6A4E6A4A5049104810E8
:1006800047102CE0200E4F6ED89043364436453646
:1006900046364B364C364D364E364A504E5C08E1A7
:1006A00049504D5C05E148504C5C02E147504B5CC1
:1006B0000FE347504B5E4850D8A0483C4C5E495031
:1006C000D8A0493C4D5E4A50D8A04A3C4E5ED880E6
:1006D00000360136023603364F2ED6D74BC0EFFF19
:1006E0004CC0ECFF4DC0ECFF4EC0ECFF120036508A
:1006F000016A355C03E235C000F00CD0006A080ED8
:10070000376E353600363650005CD8B0006E013694
:10071000372EF7D71200200E30A8300E316E2FC0C2
:1007200000F02FAE08D0001E002A00C02FF02D0EC2
:10073000316E308E308001502FC035F0640E366E31
:10074000D6DF00C02FF0300E0124326E2FC035F0FE
:100750000A0E366ECCDF300E0024346E300E0124CB
:10076000336E31C000F0300E325C04E0308230BEB7
:10077000308412D031C032F0200E316E300E335C36
:1007800004E0308030BE308207D0D8A4308004E14D
:1007900032C033F0200E326E30B405D030B207D004
:1007A00030B009D00CD031509EA8FED7AD6E32507B
:1007B0009EA8FED7AD6E33509EA8FED7AD6E3450C6
:1007C0009EA8FED7AD6E1200C282C2B2FED7C4CFC1
:1007D00003F0C3CF2FF0C4CF30F05DD403C019F0C5
:1007E00002C018F001C017F000C016F00A0E2F6EFC
:1007F0006EDC19C032F018C031F017C030F016C0EE
:100800002FF0520E366E270E356E200E346E770E98
:10081000336E70DC03C019F002C018F001C017F08D
:1008200000C016F0326A316A306A800E2F6E19C02D
:1008300036F018C035F017C034F016C033F0D3DCF2
:1008400053E319C032F018C031F017C030F016C0B1
:100850002FF0330E366E356E346E800E336EC3DC81
:1008600043E3326A200E316E1C0E306E890E2F6EFD
:1008700019C036F018C035F017C034F016C033F088
:1008800039DCD882660E326E060E316E760E306E10
:100890008A0E2F6E03C036F002C035F001C034F06E
:1008A00000C033F0DBDC03C032F002C031F001C025
:1008B00030F000C02FF003C036F002C035F001C0A8
:1008C00034F000C033F0CD0E3A6ECC0E396E4C0EC3
:1008D000386E7E0E376EF7DD03C01DF002C01CF0CF
:1008E00001C01BF000C01AF0330E326E316E306E54
:1008F000800E2F6E19C036F018C035F017C034F0D6
:1009000016C033F070DC01E23BE119C032F018C0D0
:1009100031F017C030F016C02FF0330E366E356E42
:10092000730E346E800E336E5EDC01E229E1326AB2
:10093000316A770E306E870E2F6E19C036F018C0F0
:1009400035F017C034F016C033F07AEC00F0D882DE
:10095000330E326E930E316E306A8A0E2F6E03C0E4
:1009600036F002C035F001C034F000C033F076DC60
:1009700003C01DF002C01CF001C01BF000C01AF043
:10098000330E326E316E730E306E800E2F6E19C0C4
:1009900036F018C035F017C034F016C033F023DC41
:1009A00041E3326A316A340E306E860E2F6E19C002
:1009B00036F018C035F017C034F016C033F07AECBA
:1009C00000F0D882326A316A610E306E880E2F6E66
:1009D00003C036F002C035F001C034F000C033F07F
:1009E0003DDC03C032F002C031F001C030F000C085
:1009F0002FF003C036F002C035F001C034F000C063
:100A000033F09A0E3A6E990E396E190E386E7F0ECB
:100A1000376E59DD03C01DF002C01CF001C01BF091
:100A200000C01AF00A0E2F6E67EC00F01DC032F005
:100A30001CC031F01BC030F01AC02FF0F1D503C03C
:100A400025F002C024F001C023F000C022F0D892AB
:100A500025C046F024C045F023C044F022C043F036
:100A60004A6A496A030E486EE80E476EF9DD00C017
:100A700026F0D882EA6A2F0EE96E25C046F024C01F
:100A800045F023C044F022C043F04A6A496A030E8D
:100A9000486EE80E476EE4DD32C036F031C035F006
:100AA00030C034F02FC033F0EACF38F0E9CF37F060
:100AB000D89232C046F031C045F030C044F02FC06B
:100AC00043F04A6A496A486A640E476EC9DD38C015
:100AD000EAFF37C0E9FF00C027F0D882EA6A2F0E8C
:100AE000E96E25C046F024C045F023C044F022C082
:100AF00043F04A6A496A030E486EE80E476EB0DD5D
:100B000032C036F031C035F030C034F02FC033F091
:100B1000EACF38F0E9CF37F0D882EA6A390EE96EC9
:100B200032C046F031C045F030C044F02FC043F031
:100B30004A6A496A486A640E476E92DD39C000F01D
:100B40003AC001F03BC002F03CC003F038C0EAFFFD
:100B500037C0E9FF3CC036F03BC035F03AC034F056
:100B600039C033F0EACF3EF0E9CF3DF0D8923CC037
:100B700046F03BC045F03AC044F039C043F04A6A01
:100B8000496A486A0A0E476E6BDD3EC0EAFF3DC007
:100B9000E9FF00C028F0D882EA6A2F0EE96E25C06E
:100BA00046F024C045F023C044F022C043F04A6A16
:100BB000496A030E486EE80E476E52DD32C036F0C9
:100BC00031C035F030C034F02FC033F0EACF38F008
:100BD000E9CF37F0D882EA6A390EE96E32C046F0C2
:100BE00031C045F030C044F02FC043F04A6A496A32
:100BF000486A640E476E34DD39C000F03AC001F037
:100C00003BC002F03CC003F038C0EAFF37C0E9FF48
:100C10003CC036F03BC035F03AC034F039C033F058
:100C2000EACF3EF0E9CF3DF0D882EA6A3F0EE96EA6
:100C30003CC046F03BC045F03AC044F039C043F0F8
:100C40004A6A496A486A0A0E476E0ADD3EC0EAFFF0
:100C50003DC0E9FF3FC029F00A0E2F6E67EC00F09F
:100C6000260E9EA8FED7AD6E0A0E2F6E67EC00F022
:100C700026C02FF0180E306E4EDD0A0E2F6E67EC78
:100C800000F027C02FF0180E306E45DD0A0E2F6ED3
:100C900067EC00F028C02FF0180E306E3CDD0A0E15
:100CA0002F6E67EC00F029C02FF0180E306E33DD88
:100CB0000A0E2F6E67EC00F0660E9EA8FED7AD6E92
:100CC0000A0E2F6E67EC00F0660E9EA8FED7AD6E82
:100CD0000A0E2F6E67EC00F00D0E9EA8FED7AD6ECB
:100CE0000A0E9EA8FED7AD6E0A0E2F6E67EC00F0BE
:100CF000A2EF06F0D650D7CF03F0830F2F6E000E71
:100D0000D720D76E2FC0D6FF010E2B26D8B02C2AA5
:100D1000D8B42D2AD8B42E2A2B50710813E12C50A8
:100D2000020810E12D520EE12E520CE12E6A2D6ABE
:100D30002C6A2B6A2A702AB002D08C9201D08C8245
:100D4000959242D5F2942AEF00F0F86AD09E078E71
:100D5000B886080EAF6E020EB06EA60EAC6E900E88
:100D6000AB6EC150C00B0F09C16E070EB46E2A9056
:100D70002A902B6A2C6A2D6A2E6AC50ED56ED76A08
:100D8000830ED66EC00EF212F28AC150C00B0E094D
:100D9000C16EC050C00B0709C06EC08EC280000E6D
:0E0DA000016EC250C30B0110C26EFFD70300DC
:020000040030CA
:0E00000024CC3E1E0087A1000FC00FE00F4071
:00000001FF
;PIC18F4550
;CRC=1B52  CREATED="16-jan-20 08:24"
