:1000000084EF02F0F76A140FF66E000EF722090073
:10001000F5501200280C010620456E76696F2064A9
:10002000652076616C6F722000002070656C612025
:1000300073657269616C20000D0A456E76696520F2
:10004000756D2076616C6F7220656E7472652030FC
:1000500030302065203130303A283320616C6761C0
:100060007269736D6F73290D0A000D0A6E756D65E7
:10007000726F3D256C750D0A00000D0A56616C6F9C
:100080007220696E636F727265746F21210D0A00B0
:100090000D0A56616C6F72206F6B0D0A00000C73B5
:1000A0006574706F696E7420256C7500EA6A250EA0
:1000B000E96EEF500DE0060E016E006A002EFED7CD
:1000C000012EFBD77B0E006E002EFED7EF2EF3D74E
:1000D00012002C38F00B006E0F0E8A1400108A6E7E
:1000E00000008A80020E006E002EFED700D00000B5
:1000F0008A9012008150006E00380F0B016E1200C2
:100100000F0E9314F009936E8A8400008A80000019
:10011000F1DF01C02CF08A9000008A8000D000D06E
:100120000000E8DF01C02BF08A900F0E9314936E4D
:100130002C38006EF00E001600502B10016EA6EF4A
:1001400000F09390939293948A92DAD701C02BF0A7
:1001500001BEFBD78A9229B08A8200008A940000EF
:100160008A902A382B6E0F0E2B162BC02CF0B1DF85
:100170002A500F0B2B6E2C6EACDF12000F0E931457
:10018000936E9390939293948A928A948A900F0E8E
:10019000256E8CDF010E186E1850030808E3030E5D
:1001A0002C6E97DF050E256E81DF182AF5D7020E1B
:1001B0002C6E8FDF050E256E79DF186A1850030844
:1001C0000EE3036A1850F2CF19F0F29E1BDF19BE3E
:1001D000F28E196E296A2A6EB4DF182AEFD796EFCD
:1001E00002F0262C01D003D0400E276E01D0276AE2
:1001F000010E255C272627508009286E296A2A6E61
:10020000A0DF12002450070A07E00B0A0AE0060AE2
:1002100010E0020A14E018D0010E256E266EE1DF10
:1002200018D0296A010E2A6E8CDF020E256E3EDF81
:1002300010D0010E256E020E266ED3DF0AD0296A79
:10024000100E2A6E7EDF05D0010E296E24C02AF022
:1002500078DF12000900F5520CE0F6CF18F0F7CF66
:1002600019F0F5CF24F0CEDF18C0F6FF19C0F7FF64
:10027000F1D712000900F5520DE0F6CF18F0F7CFD4
:1002800019F0F5509EA8FED7AD6E18C0F6FF19C044
:10029000F7FFF0D71200246A256A010E266EDA6A8B
:1002A000D96A296A1C0E286EEA6A200EE96E29C0F6
:1002B000E2FF28C0E1FF26C027F0D890E550EE020B
:1002C000F3502422F4502522272EF7D724C0DEFF36
:1002D00025C024F0256AD8B0252A282AD8B4292A8E
:1002E000262A26500508E0E112000900F6CF19F091
:1002F000F7CF1AF0F5509EA8FED7AD6E19C0F6FFE5
:100300001AC0F7FF182EF1D710EF03F0D8B203D0C0
:10031000EA6A2C0EE96E006A016A026A036A2C6AB4
:100320002D6A2E6A2F6A2B502A10291028102CE0D3
:10033000200E306ED89024362536263627362C36B9
:100340002D362E362F362B502F5C08E12A502E5C8E
:1003500005E129502D5C02E128502C5C0FE3285068
:100360002C5E2950D8A0293C2D5E2A50D8A02A3CCA
:100370002E5E2B50D8A02B3C2F5ED8800036013645
:1003800002360336302ED6D72CC0EFFF2DC0ECFF3F
:100390002EC0ECFF2FC0ECFF1200E9501C6E3B0E8C
:1003A000236E9A0E226ECA0E216E206A0A0E1E6EEF
:1003B000D882EA6A180EE96E1BC027F01AC026F030
:1003C00019C025F018C024F023C02BF022C02AF059
:1003D00021C029F020C028F099DF015000520FE120
:1003E0001E50010A0CE01C500BE00F0B1E5C01E0DC
:1003F0000DE21CBE0BD01CBC03D0200E02D01C6A28
:10040000300E002600509EA8FED7AD6ED89223C0B5
:1004100027F022C026F021C025F020C024F02B6A4E
:100420002A6A296A0A0E286E71DF03C023F002C00F
:1004300022F001C021F000C020F01E2EB9D71BEF22
:1004400003F00900F6CF19F0F7CF1AF0F5CF24F03A
:10045000D9DE19C0F6FF1AC0F7FF182EF2D753EFF6
:1004600003F0E9501C6E3B0E236E9A0E226ECA0EEC
:10047000216E206A0A0E1E6ED882EA6A180EE96E94
:100480001BC027F01AC026F019C025F018C024F0B0
:1004900023C02BF022C02AF021C029F020C028F070
:1004A00035DF015000520FE11E50010A0CE01C50D4
:1004B0000BE00F0B1E5C01E00CE21CBE0AD01CBC62
:1004C00003D0200E02D01C6A300E002600C024F09B
:1004D00099DED89223C027F022C026F021C025F053
:1004E00020C024F02B6A2A6A296A0A0E286E0EDFC1
:1004F00003C023F002C022F001C021F000C020F0B0
:100500001E2EBAD75EEF03F0F86AD09EB886080EAA
:10051000AF6E020EB06EA60EAC6E900EAB6EC150FA
:10052000C00B0F09C16E070EB46E28D6010E256EE2
:10053000266E57DE180EF66E000EF76E8BDE010E7D
:10054000256E020E266E4DDE2A0EF66E000EF76E3A
:1005500081DEC80E256EAADD380EF66E000EF76E2F
:1005600089DE9EAAFED7AE50D00F0C6E0D6A0E6AC1
:100570000F6A9EAAFED7AE50D00F086E096A0A6AAB
:100580000B6A9EAAFED7AE50D00F046E056A066AAB
:10059000076A9EAAFED7AE50D00F106E116A126A7B
:1005A000136A1F6A1E6A1D6A640E1C6E0FC023F058
:1005B0000EC022F00DC021F00CC020F06CDE03C094
:1005C0001BF002C01AF001C019F000C018F01F6A39
:1005D0001E6A1D6A0A0E1C6E0BC023F00AC022F0B0
:1005E00009C021F008C020F056DE00501826015046
:1005F000192202501A2203501B2204501824146E90
:1006000005501920156E06501A20166E07501B2033
:10061000176E6A0EF66E000EF76E090E186E65D62E
:10062000410EE96E17C01BF016C01AF015C019F084
:1006300014C018F0B2D60D0E9EA8FED7AD6E0A0EED
:100640009EA8FED7AD6E17520AE1165208E1155268
:1006500006E11450640808E202D000A005D07A0E2A
:10066000F66E000EF76E06DE1752D8A475D7165236
:10067000D8A472D71552D8A46FD71450640803E2D7
:100680006BD700B069D7010E256E266EAADD900EDD
:10069000F66E000EF76EEEDD9E0EF66E000EF76E35
:1006A0000A0E186ECED6410EE96E17C01BF016C0AA
:1006B0001AF015C019F014C018F0D3D6080E186E31
:1006C000FA0E256EF3DC182EFBD70F6A0E6A0D6A40
:1006D0000C6A0B6A0A6A096A086A076A066A056A86
:0606E000046A24D70300A8
:020000040030CA
:0E00000024CC3E1E0087A1000FC00FE00F4071
:00000001FF
;PIC18F4550
;CRC=0B8D  CREATED="14-mai-21 22:24"
